{
  "_format": "hh-sol-artifact-1",
  "contractName": "HarsaEscrow",
  "sourceName": "contracts/HarsaEscrow.sol",
  "abi": [
    {
      "inputs": [],
      "stateMutability": "nonpayable",
      "type": "constructor"
    },
    {
      "anonymous": false,
      "inputs": [
        {
          "indexed": true,
          "internalType": "uint256",
          "name": "txId",
          "type": "uint256"
        }
      ],
      "name": "ItemReceived",
      "type": "event"
    },
    {
      "anonymous": false,
      "inputs": [
        {
          "indexed": true,
          "internalType": "uint256",
          "name": "txId",
          "type": "uint256"
        },
        {
          "indexed": false,
          "internalType": "uint256",
          "name": "proposedAmount",
          "type": "uint256"
        }
      ],
      "name": "NegotiationProposed",
      "type": "event"
    },
    {
      "anonymous": false,
      "inputs": [
        {
          "indexed": true,
          "internalType": "uint256",
          "name": "txId",
          "type": "uint256"
        },
        {
          "indexed": false,
          "internalType": "bool",
          "name": "approved",
          "type": "bool"
        },
        {
          "indexed": false,
          "internalType": "uint256",
          "name": "finalAmount",
          "type": "uint256"
        }
      ],
      "name": "NegotiationResolved",
      "type": "event"
    },
    {
      "anonymous": false,
      "inputs": [
        {
          "indexed": true,
          "internalType": "uint256",
          "name": "txId",
          "type": "uint256"
        }
      ],
      "name": "TransactionCancelled",
      "type": "event"
    },
    {
      "anonymous": false,
      "inputs": [
        {
          "indexed": true,
          "internalType": "uint256",
          "name": "txId",
          "type": "uint256"
        },
        {
          "indexed": true,
          "internalType": "address",
          "name": "seller",
          "type": "address"
        },
        {
          "indexed": true,
          "internalType": "address",
          "name": "buyer",
          "type": "address"
        },
        {
          "indexed": false,
          "internalType": "uint256",
          "name": "amount",
          "type": "uint256"
        }
      ],
      "name": "TransactionCreated",
      "type": "event"
    },
    {
      "inputs": [
        {
          "internalType": "uint256",
          "name": "_txId",
          "type": "uint256"
        }
      ],
      "name": "cancelTransaction",
      "outputs": [],
      "stateMutability": "nonpayable",
      "type": "function"
    },
    {
      "inputs": [
        {
          "internalType": "address[]",
          "name": "_sellers",
          "type": "address[]"
        },
        {
          "internalType": "uint256[]",
          "name": "_amounts",
          "type": "uint256[]"
        },
        {
          "internalType": "string[]",
          "name": "_skus",
          "type": "string[]"
        }
      ],
      "name": "checkout",
      "outputs": [],
      "stateMutability": "payable",
      "type": "function"
    },
    {
      "inputs": [
        {
          "internalType": "uint256",
          "name": "_txId",
          "type": "uint256"
        }
      ],
      "name": "confirmDelivery",
      "outputs": [],
      "stateMutability": "nonpayable",
      "type": "function"
    },
    {
      "inputs": [],
      "name": "emergencyWithdraw",
      "outputs": [],
      "stateMutability": "nonpayable",
      "type": "function"
    },
    {
      "inputs": [],
      "name": "getBalance",
      "outputs": [
        {
          "internalType": "uint256",
          "name": "",
          "type": "uint256"
        }
      ],
      "stateMutability": "view",
      "type": "function"
    },
    {
      "inputs": [],
      "name": "owner",
      "outputs": [
        {
          "internalType": "address",
          "name": "",
          "type": "address"
        }
      ],
      "stateMutability": "view",
      "type": "function"
    },
    {
      "inputs": [
        {
          "internalType": "uint256",
          "name": "_txId",
          "type": "uint256"
        },
        {
          "internalType": "uint256",
          "name": "_proposedAmount",
          "type": "uint256"
        }
      ],
      "name": "proposeNegotiation",
      "outputs": [],
      "stateMutability": "nonpayable",
      "type": "function"
    },
    {
      "inputs": [
        {
          "internalType": "uint256",
          "name": "_txId",
          "type": "uint256"
        },
        {
          "internalType": "bool",
          "name": "_accept",
          "type": "bool"
        }
      ],
      "name": "respondToNegotiation",
      "outputs": [],
      "stateMutability": "nonpayable",
      "type": "function"
    },
    {
      "inputs": [],
      "name": "transactionCount",
      "outputs": [
        {
          "internalType": "uint256",
          "name": "",
          "type": "uint256"
        }
      ],
      "stateMutability": "view",
      "type": "function"
    },
    {
      "inputs": [
        {
          "internalType": "uint256",
          "name": "",
          "type": "uint256"
        }
      ],
      "name": "transactions",
      "outputs": [
        {
          "internalType": "address",
          "name": "seller",
          "type": "address"
        },
        {
          "internalType": "address",
          "name": "buyer",
          "type": "address"
        },
        {
          "internalType": "uint256",
          "name": "amount",
          "type": "uint256"
        },
        {
          "internalType": "uint256",
          "name": "negotiatedAmount",
          "type": "uint256"
        },
        {
          "internalType": "enum HarsaEscrow.State",
          "name": "status",
          "type": "uint8"
        },
        {
          "internalType": "string",
          "name": "productSku",
          "type": "string"
        },
        {
          "internalType": "bool",
          "name": "isNegotiationActive",
          "type": "bool"
        }
      ],
      "stateMutability": "view",
      "type": "function"
    }
  ],
  "bytecode": "0x608060405234801561001057600080fd5b50336000806101000a81548173ffffffffffffffffffffffffffffffffffffffff021916908373ffffffffffffffffffffffffffffffffffffffff160217905550612397806100606000396000f3fe6080604052600436106100915760003560e01c80639ace38c2116100595780639ace38c21461015a578063b77bf6001461019d578063db2e21bc146101c8578063e9148e77146101df578063fd84cb971461020857610091565b806312065fe0146100965780633380c0d8146100c157806360577849146100ea57806384b66cfe146101065780638da5cb5b1461012f575b600080fd5b3480156100a257600080fd5b506100ab610231565b6040516100b89190611182565b60405180910390f35b3480156100cd57600080fd5b506100e860048036038101906100e391906111dd565b610239565b005b61010460048036038101906100ff919061161a565b6104e7565b005b34801561011257600080fd5b5061012d600480360381019061012891906116f9565b610882565b005b34801561013b57600080fd5b50610144610b06565b6040516101519190611748565b60405180910390f35b34801561016657600080fd5b50610181600480360381019061017c91906111dd565b610b2a565b6040516101949796959493929190611868565b60405180910390f35b3480156101a957600080fd5b506101b2610c4e565b6040516101bf9190611182565b60405180910390f35b3480156101d457600080fd5b506101dd610c54565b005b3480156101eb57600080fd5b50610206600480360381019061020191906118de565b610d4b565b005b34801561021457600080fd5b5061022f600480360381019061022a91906111dd565b610f15565b005b600047905090565b60006002600083815260200190815260200160002090508060010160009054906101000a900473ffffffffffffffffffffffffffffffffffffffff1673ffffffffffffffffffffffffffffffffffffffff163373ffffffffffffffffffffffffffffffffffffffff1614806102fd57508060000160009054906101000a900473ffffffffffffffffffffffffffffffffffffffff1673ffffffffffffffffffffffffffffffffffffffff163373ffffffffffffffffffffffffffffffffffffffff16145b61033c576040517f08c379a00000000000000000000000000000000000000000000000000000000081526004016103339061196a565b60405180910390fd5b600060048111156103505761034f611763565b5b8160040160009054906101000a900460ff16600481111561037457610373611763565b5b146103b4576040517f08c379a00000000000000000000000000000000000000000000000000000000081526004016103ab906119d6565b60405180910390fd5b60038160040160006101000a81548160ff021916908360048111156103dc576103db611763565b5b021790555060008160010160009054906101000a900473ffffffffffffffffffffffffffffffffffffffff1673ffffffffffffffffffffffffffffffffffffffff16826002015460405161042f90611a27565b60006040518083038185875af1925050503d806000811461046c576040519150601f19603f3d011682016040523d82523d6000602084013e610471565b606091505b50509050806104b5576040517f08c379a00000000000000000000000000000000000000000000000000000000081526004016104ac90611a88565b60405180910390fd5b827f956fb32199d8b882b2039a14e1be35ab14f7a80b9089fc223f14b43937173e6060405160405180910390a2505050565b815183511480156104f9575080518251145b610538576040517f08c379a000000000000000000000000000000000000000000000000000000000815260040161052f90611af4565b60405180910390fd5b6000805b83518110156105805783818151811061055857610557611b14565b5b60200260200101518261056b9190611b72565b9150808061057890611ba6565b91505061053c565b50803410156105c4576040517f08c379a00000000000000000000000000000000000000000000000000000000081526004016105bb90611c3a565b60405180910390fd5b60005b845181101561087b57600160008154809291906105e390611ba6565b91905055506040518060e0016040528086838151811061060657610605611b14565b5b602002602001015173ffffffffffffffffffffffffffffffffffffffff1681526020013373ffffffffffffffffffffffffffffffffffffffff16815260200185838151811061065857610657611b14565b5b6020026020010151815260200160008152602001600060048111156106805761067f611763565b5b815260200184838151811061069857610697611b14565b5b602002602001015181526020016000151581525060026000600154815260200190815260200160002060008201518160000160006101000a81548173ffffffffffffffffffffffffffffffffffffffff021916908373ffffffffffffffffffffffffffffffffffffffff16021790555060208201518160010160006101000a81548173ffffffffffffffffffffffffffffffffffffffff021916908373ffffffffffffffffffffffffffffffffffffffff160217905550604082015181600201556060820151816003015560808201518160040160006101000a81548160ff0219169083600481111561078e5761078d611763565b5b021790555060a08201518160050190816107a89190611e66565b5060c08201518160060160006101000a81548160ff0219169083151502179055509050503373ffffffffffffffffffffffffffffffffffffffff168582815181106107f6576107f5611b14565b5b602002602001015173ffffffffffffffffffffffffffffffffffffffff166001547fe9097a4f4eddc0e5906640fcd9e1193c9db52771536ca4c8b06ab4c40aa045d287858151811061084b5761084a611b14565b5b60200260200101516040516108609190611182565b60405180910390a4808061087390611ba6565b9150506105c7565b5050505050565b60006002600084815260200190815260200160002090508060000160009054906101000a900473ffffffffffffffffffffffffffffffffffffffff1673ffffffffffffffffffffffffffffffffffffffff163373ffffffffffffffffffffffffffffffffffffffff161461092b576040517f08c379a000000000000000000000000000000000000000000000000000000000815260040161092290611f84565b60405180910390fd5b8060060160009054906101000a900460ff1661097c576040517f08c379a000000000000000000000000000000000000000000000000000000000815260040161097390611ff0565b60405180910390fd5b8115610a9b576000816003015482600201546109989190612010565b90508160030154826002018190555060008260060160006101000a81548160ff02191690831515021790555060008260010160009054906101000a900473ffffffffffffffffffffffffffffffffffffffff1673ffffffffffffffffffffffffffffffffffffffff1682604051610a0e90611a27565b60006040518083038185875af1925050503d8060008114610a4b576040519150601f19603f3d011682016040523d82523d6000602084013e610a50565b606091505b5050905080610a94576040517f08c379a0000000000000000000000000000000000000000000000000000000008152600401610a8b90611a88565b60405180910390fd5b5050610ac3565b60008160060160006101000a81548160ff021916908315150217905550600081600301819055505b827fddfc2e5da3767126816d7eb902c7e76bf0c59ac2ec84078db4268b2cc440565f838360020154604051610af9929190612044565b60405180910390a2505050565b60008054906101000a900473ffffffffffffffffffffffffffffffffffffffff1681565b60026020528060005260406000206000915090508060000160009054906101000a900473ffffffffffffffffffffffffffffffffffffffff16908060010160009054906101000a900473ffffffffffffffffffffffffffffffffffffffff16908060020154908060030154908060040160009054906101000a900460ff1690806005018054610bb890611c89565b80601f0160208091040260200160405190810160405280929190818152602001828054610be490611c89565b8015610c315780601f10610c0657610100808354040283529160200191610c31565b820191906000526020600020905b815481529060010190602001808311610c1457829003601f168201915b5050505050908060060160009054906101000a900460ff16905087565b60015481565b60008054906101000a900473ffffffffffffffffffffffffffffffffffffffff1673ffffffffffffffffffffffffffffffffffffffff163373ffffffffffffffffffffffffffffffffffffffff1614610ce2576040517f08c379a0000000000000000000000000000000000000000000000000000000008152600401610cd9906120b9565b60405180910390fd5b60008054906101000a900473ffffffffffffffffffffffffffffffffffffffff1673ffffffffffffffffffffffffffffffffffffffff166108fc479081150290604051600060405180830381858888f19350505050158015610d48573d6000803e3d6000fd5b50565b60006002600084815260200190815260200160002090508060010160009054906101000a900473ffffffffffffffffffffffffffffffffffffffff1673ffffffffffffffffffffffffffffffffffffffff163373ffffffffffffffffffffffffffffffffffffffff1614610df4576040517f08c379a0000000000000000000000000000000000000000000000000000000008152600401610deb90612125565b60405180910390fd5b60006004811115610e0857610e07611763565b5b8160040160009054906101000a900460ff166004811115610e2c57610e2b611763565b5b14610e6c576040517f08c379a0000000000000000000000000000000000000000000000000000000008152600401610e6390612191565b60405180910390fd5b80600201548210610eb2576040517f08c379a0000000000000000000000000000000000000000000000000000000008152600401610ea9906121fd565b60405180910390fd5b81816003018190555060018160060160006101000a81548160ff021916908315150217905550827f361a6d6b93d4a1ed551510370f928b8dbe4bdd89f2949b2bf127804840cd55d983604051610f089190611182565b60405180910390a2505050565b60006002600083815260200190815260200160002090508060010160009054906101000a900473ffffffffffffffffffffffffffffffffffffffff1673ffffffffffffffffffffffffffffffffffffffff163373ffffffffffffffffffffffffffffffffffffffff1614610fbe576040517f08c379a0000000000000000000000000000000000000000000000000000000008152600401610fb590612269565b60405180910390fd5b60006004811115610fd257610fd1611763565b5b8160040160009054906101000a900460ff166004811115610ff657610ff5611763565b5b14611036576040517f08c379a000000000000000000000000000000000000000000000000000000000815260040161102d906122d5565b60405180910390fd5b60028160040160006101000a81548160ff0219169083600481111561105e5761105d611763565b5b021790555060008160000160009054906101000a900473ffffffffffffffffffffffffffffffffffffffff1673ffffffffffffffffffffffffffffffffffffffff1682600201546040516110b190611a27565b60006040518083038185875af1925050503d80600081146110ee576040519150601f19603f3d011682016040523d82523d6000602084013e6110f3565b606091505b5050905080611137576040517f08c379a000000000000000000000000000000000000000000000000000000000815260040161112e90612341565b60405180910390fd5b827f01e74d1f4f418e68629246efc4a29d98199e9c9b9c3653bdbfee74d2ad4ac6a360405160405180910390a2505050565b6000819050919050565b61117c81611169565b82525050565b60006020820190506111976000830184611173565b92915050565b6000604051905090565b600080fd5b600080fd5b6111ba81611169565b81146111c557600080fd5b50565b6000813590506111d7816111b1565b92915050565b6000602082840312156111f3576111f26111a7565b5b6000611201848285016111c8565b91505092915050565b600080fd5b6000601f19601f8301169050919050565b7f4e487b7100000000000000000000000000000000000000000000000000000000600052604160045260246000fd5b6112588261120f565b810181811067ffffffffffffffff8211171561127757611276611220565b5b80604052505050565b600061128a61119d565b9050611296828261124f565b919050565b600067ffffffffffffffff8211156112b6576112b5611220565b5b602082029050602081019050919050565b600080fd5b600073ffffffffffffffffffffffffffffffffffffffff82169050919050565b60006112f7826112cc565b9050919050565b611307816112ec565b811461131257600080fd5b50565b600081359050611324816112fe565b92915050565b600061133d6113388461129b565b611280565b905080838252602082019050602084028301858111156113605761135f6112c7565b5b835b8181101561138957806113758882611315565b845260208401935050602081019050611362565b5050509392505050565b600082601f8301126113a8576113a761120a565b5b81356113b884826020860161132a565b91505092915050565b600067ffffffffffffffff8211156113dc576113db611220565b5b602082029050602081019050919050565b60006114006113fb846113c1565b611280565b90508083825260208201905060208402830185811115611423576114226112c7565b5b835b8181101561144c578061143888826111c8565b845260208401935050602081019050611425565b5050509392505050565b600082601f83011261146b5761146a61120a565b5b813561147b8482602086016113ed565b91505092915050565b600067ffffffffffffffff82111561149f5761149e611220565b5b602082029050602081019050919050565b600080fd5b600067ffffffffffffffff8211156114d0576114cf611220565b5b6114d98261120f565b9050602081019050919050565b82818337600083830152505050565b6000611508611503846114b5565b611280565b905082815260208101848484011115611524576115236114b0565b5b61152f8482856114e6565b509392505050565b600082601f83011261154c5761154b61120a565b5b813561155c8482602086016114f5565b91505092915050565b600061157861157384611484565b611280565b9050808382526020820190506020840283018581111561159b5761159a6112c7565b5b835b818110156115e257803567ffffffffffffffff8111156115c0576115bf61120a565b5b8086016115cd8982611537565b8552602085019450505060208101905061159d565b5050509392505050565b600082601f8301126116015761160061120a565b5b8135611611848260208601611565565b91505092915050565b600080600060608486031215611633576116326111a7565b5b600084013567ffffffffffffffff811115611651576116506111ac565b5b61165d86828701611393565b935050602084013567ffffffffffffffff81111561167e5761167d6111ac565b5b61168a86828701611456565b925050604084013567ffffffffffffffff8111156116ab576116aa6111ac565b5b6116b7868287016115ec565b9150509250925092565b60008115159050919050565b6116d6816116c1565b81146116e157600080fd5b50565b6000813590506116f3816116cd565b92915050565b600080604083850312156117105761170f6111a7565b5b600061171e858286016111c8565b925050602061172f858286016116e4565b9150509250929050565b611742816112ec565b82525050565b600060208201905061175d6000830184611739565b92915050565b7f4e487b7100000000000000000000000000000000000000000000000000000000600052602160045260246000fd5b600581106117a3576117a2611763565b5b50565b60008190506117b482611792565b919050565b60006117c4826117a6565b9050919050565b6117d4816117b9565b82525050565b600081519050919050565b600082825260208201905092915050565b60005b838110156118145780820151818401526020810190506117f9565b60008484015250505050565b600061182b826117da565b61183581856117e5565b93506118458185602086016117f6565b61184e8161120f565b840191505092915050565b611862816116c1565b82525050565b600060e08201905061187d600083018a611739565b61188a6020830189611739565b6118976040830188611173565b6118a46060830187611173565b6118b160808301866117cb565b81810360a08301526118c38185611820565b90506118d260c0830184611859565b98975050505050505050565b600080604083850312156118f5576118f46111a7565b5b6000611903858286016111c8565b9250506020611914858286016111c8565b9150509250929050565b7f556e617574686f72697a65640000000000000000000000000000000000000000600082015250565b6000611954600c836117e5565b915061195f8261191e565b602082019050919050565b6000602082019050818103600083015261198381611947565b9050919050565b7f43616e6e6f742063616e63656c00000000000000000000000000000000000000600082015250565b60006119c0600d836117e5565b91506119cb8261198a565b602082019050919050565b600060208201905081810360008301526119ef816119b3565b9050919050565b600081905092915050565b50565b6000611a116000836119f6565b9150611a1c82611a01565b600082019050919050565b6000611a3282611a04565b9150819050919050565b7f526566756e64206661696c656400000000000000000000000000000000000000600082015250565b6000611a72600d836117e5565b9150611a7d82611a3c565b602082019050919050565b60006020820190508181036000830152611aa181611a65565b9050919050565b7f4172726179206d69736d61746368000000000000000000000000000000000000600082015250565b6000611ade600e836117e5565b9150611ae982611aa8565b602082019050919050565b60006020820190508181036000830152611b0d81611ad1565b9050919050565b7f4e487b7100000000000000000000000000000000000000000000000000000000600052603260045260246000fd5b7f4e487b7100000000000000000000000000000000000000000000000000000000600052601160045260246000fd5b6000611b7d82611169565b9150611b8883611169565b9250828201905080821115611ba057611b9f611b43565b5b92915050565b6000611bb182611169565b91507fffffffffffffffffffffffffffffffffffffffffffffffffffffffffffffffff8203611be357611be2611b43565b5b600182019050919050565b7f496e73756666696369656e742066756e64732073656e74000000000000000000600082015250565b6000611c246017836117e5565b9150611c2f82611bee565b602082019050919050565b60006020820190508181036000830152611c5381611c17565b9050919050565b7f4e487b7100000000000000000000000000000000000000000000000000000000600052602260045260246000fd5b60006002820490506001821680611ca157607f821691505b602082108103611cb457611cb3611c5a565b5b50919050565b60008190508160005260206000209050919050565b60006020601f8301049050919050565b600082821b905092915050565b600060088302611d1c7fffffffffffffffffffffffffffffffffffffffffffffffffffffffffffffffff82611cdf565b611d268683611cdf565b95508019841693508086168417925050509392505050565b6000819050919050565b6000611d63611d5e611d5984611169565b611d3e565b611169565b9050919050565b6000819050919050565b611d7d83611d48565b611d91611d8982611d6a565b848454611cec565b825550505050565b600090565b611da6611d99565b611db1818484611d74565b505050565b5b81811015611dd557611dca600082611d9e565b600181019050611db7565b5050565b601f821115611e1a57611deb81611cba565b611df484611ccf565b81016020851015611e03578190505b611e17611e0f85611ccf565b830182611db6565b50505b505050565b600082821c905092915050565b6000611e3d60001984600802611e1f565b1980831691505092915050565b6000611e568383611e2c565b9150826002028217905092915050565b611e6f826117da565b67ffffffffffffffff811115611e8857611e87611220565b5b611e928254611c89565b611e9d828285611dd9565b600060209050601f831160018114611ed05760008415611ebe578287015190505b611ec88582611e4a565b865550611f30565b601f198416611ede86611cba565b60005b82811015611f0657848901518255600182019150602085019450602081019050611ee1565b86831015611f235784890151611f1f601f891682611e2c565b8355505b6001600288020188555050505b505050505050565b7f4f6e6c792073656c6c6572000000000000000000000000000000000000000000600082015250565b6000611f6e600b836117e5565b9150611f7982611f38565b602082019050919050565b60006020820190508181036000830152611f9d81611f61565b9050919050565b7f4e6f20616374697665206e65676f74696174696f6e0000000000000000000000600082015250565b6000611fda6015836117e5565b9150611fe582611fa4565b602082019050919050565b6000602082019050818103600083015261200981611fcd565b9050919050565b600061201b82611169565b915061202683611169565b925082820390508181111561203e5761203d611b43565b5b92915050565b60006040820190506120596000830185611859565b6120666020830184611173565b9392505050565b7f4f6e6c79206f776e657200000000000000000000000000000000000000000000600082015250565b60006120a3600a836117e5565b91506120ae8261206d565b602082019050919050565b600060208201905081810360008301526120d281612096565b9050919050565b7f4f6e6c7920627579657200000000000000000000000000000000000000000000600082015250565b600061210f600a836117e5565b915061211a826120d9565b602082019050919050565b6000602082019050818103600083015261213e81612102565b9050919050565b7f496e76616c696420737461746500000000000000000000000000000000000000600082015250565b600061217b600d836117e5565b915061218682612145565b602082019050919050565b600060208201905081810360008301526121aa8161216e565b9050919050565b7f4d757374206265206c6f776572207468616e206f726967696e616c0000000000600082015250565b60006121e7601b836117e5565b91506121f2826121b1565b602082019050919050565b60006020820190508181036000830152612216816121da565b9050919050565b7f4f6e6c792062757965722063616e20636f6e6669726d00000000000000000000600082015250565b60006122536016836117e5565b915061225e8261221d565b602082019050919050565b6000602082019050818103600083015261228281612246565b9050919050565b7f496e76616c696420737461747573000000000000000000000000000000000000600082015250565b60006122bf600e836117e5565b91506122ca82612289565b602082019050919050565b600060208201905081810360008301526122ee816122b2565b9050919050565b7f5472616e7366657220746f2073656c6c6572206661696c656400000000000000600082015250565b600061232b6019836117e5565b9150612336826122f5565b602082019050919050565b6000602082019050818103600083015261235a8161231e565b905091905056fea2646970667358221220bb60373d6df56f287959d26650d9c9df8a58bece33fff753c5f145f451a21a0364736f6c63430008140033",
  "linkReferences": {},
  "deployedLinkReferences": {}
}