{
  "_format": "hh-sol-artifact-1",
  "contractName": "HarsaEscrow",
  "sourceName": "contracts/HarsaEscrow.sol",
  "abi": [
    {
      "inputs": [],
      "stateMutability": "nonpayable",
      "type": "constructor"
    },
    {
      "anonymous": false,
      "inputs": [
        {
          "indexed": true,
          "internalType": "uint256",
          "name": "txId",
          "type": "uint256"
        }
      ],
      "name": "ItemReceived",
      "type": "event"
    },
    {
      "anonymous": false,
      "inputs": [
        {
          "indexed": true,
          "internalType": "uint256",
          "name": "txId",
          "type": "uint256"
        },
        {
          "indexed": false,
          "internalType": "uint256",
          "name": "proposedAmount",
          "type": "uint256"
        }
      ],
      "name": "NegotiationProposed",
      "type": "event"
    },
    {
      "anonymous": false,
      "inputs": [
        {
          "indexed": true,
          "internalType": "uint256",
          "name": "txId",
          "type": "uint256"
        },
        {
          "indexed": false,
          "internalType": "bool",
          "name": "approved",
          "type": "bool"
        },
        {
          "indexed": false,
          "internalType": "uint256",
          "name": "finalAmount",
          "type": "uint256"
        }
      ],
      "name": "NegotiationResolved",
      "type": "event"
    },
    {
      "anonymous": false,
      "inputs": [
        {
          "indexed": true,
          "internalType": "uint256",
          "name": "txId",
          "type": "uint256"
        }
      ],
      "name": "TransactionCancelled",
      "type": "event"
    },
    {
      "anonymous": false,
      "inputs": [
        {
          "indexed": true,
          "internalType": "uint256",
          "name": "txId",
          "type": "uint256"
        },
        {
          "indexed": true,
          "internalType": "address",
          "name": "seller",
          "type": "address"
        },
        {
          "indexed": true,
          "internalType": "address",
          "name": "buyer",
          "type": "address"
        },
        {
          "indexed": false,
          "internalType": "uint256",
          "name": "amount",
          "type": "uint256"
        }
      ],
      "name": "TransactionCreated",
      "type": "event"
    },
    {
      "inputs": [
        {
          "internalType": "uint256",
          "name": "_txId",
          "type": "uint256"
        }
      ],
      "name": "cancelTransaction",
      "outputs": [],
      "stateMutability": "nonpayable",
      "type": "function"
    },
    {
      "inputs": [
        {
          "internalType": "address[]",
          "name": "_sellers",
          "type": "address[]"
        },
        {
          "internalType": "uint256[]",
          "name": "_amounts",
          "type": "uint256[]"
        },
        {
          "internalType": "string[]",
          "name": "_skus",
          "type": "string[]"
        }
      ],
      "name": "checkout",
      "outputs": [],
      "stateMutability": "payable",
      "type": "function"
    },
    {
      "inputs": [
        {
          "internalType": "uint256",
          "name": "_txId",
          "type": "uint256"
        }
      ],
      "name": "confirmDelivery",
      "outputs": [],
      "stateMutability": "nonpayable",
      "type": "function"
    },
    {
      "inputs": [],
      "name": "emergencyWithdraw",
      "outputs": [],
      "stateMutability": "nonpayable",
      "type": "function"
    },
    {
      "inputs": [],
      "name": "getBalance",
      "outputs": [
        {
          "internalType": "uint256",
          "name": "",
          "type": "uint256"
        }
      ],
      "stateMutability": "view",
      "type": "function"
    },
    {
      "inputs": [],
      "name": "owner",
      "outputs": [
        {
          "internalType": "address",
          "name": "",
          "type": "address"
        }
      ],
      "stateMutability": "view",
      "type": "function"
    },
    {
      "inputs": [
        {
          "internalType": "uint256",
          "name": "_txId",
          "type": "uint256"
        },
        {
          "internalType": "uint256",
          "name": "_proposedAmount",
          "type": "uint256"
        }
      ],
      "name": "proposeNegotiation",
      "outputs": [],
      "stateMutability": "nonpayable",
      "type": "function"
    },
    {
      "inputs": [
        {
          "internalType": "uint256",
          "name": "_txId",
          "type": "uint256"
        },
        {
          "internalType": "bool",
          "name": "_accept",
          "type": "bool"
        }
      ],
      "name": "respondToNegotiation",
      "outputs": [],
      "stateMutability": "nonpayable",
      "type": "function"
    },
    {
      "inputs": [],
      "name": "transactionCount",
      "outputs": [
        {
          "internalType": "uint256",
          "name": "",
          "type": "uint256"
        }
      ],
      "stateMutability": "view",
      "type": "function"
    },
    {
      "inputs": [
        {
          "internalType": "uint256",
          "name": "",
          "type": "uint256"
        }
      ],
      "name": "transactions",
      "outputs": [
        {
          "internalType": "address",
          "name": "seller",
          "type": "address"
        },
        {
          "internalType": "address",
          "name": "buyer",
          "type": "address"
        },
        {
          "internalType": "uint256",
          "name": "amount",
          "type": "uint256"
        },
        {
          "internalType": "uint256",
          "name": "negotiatedAmount",
          "type": "uint256"
        },
        {
          "internalType": "enum HarsaEscrow.State",
          "name": "status",
          "type": "uint8"
        },
        {
          "internalType": "string",
          "name": "productSku",
          "type": "string"
        },
        {
          "internalType": "bool",
          "name": "isNegotiationActive",
          "type": "bool"
        }
      ],
      "stateMutability": "view",
      "type": "function"
    }
  ],
  "bytecode": "0x608060405234801561001057600080fd5b50336000806101000a81548173ffffffffffffffffffffffffffffffffffffffff021916908373ffffffffffffffffffffffffffffffffffffffff160217905550612381806100606000396000f3fe6080604052600436106100915760003560e01c80639ace38c2116100595780639ace38c21461015a578063b77bf6001461019d578063db2e21bc146101c8578063e9148e77146101df578063fd84cb971461020857610091565b806312065fe0146100965780633380c0d8146100c157806360577849146100ea57806384b66cfe146101065780638da5cb5b1461012f575b600080fd5b3480156100a257600080fd5b506100ab610231565b6040516100b891906111d8565b60405180910390f35b3480156100cd57600080fd5b506100e860048036038101906100e39190611233565b610239565b005b61010460048036038101906100ff9190611670565b6104e7565b005b34801561011257600080fd5b5061012d6004803603810190610128919061174f565b610882565b005b34801561013b57600080fd5b50610144610b06565b604051610151919061179e565b60405180910390f35b34801561016657600080fd5b50610181600480360381019061017c9190611233565b610b2a565b60405161019497969594939291906118be565b60405180910390f35b3480156101a957600080fd5b506101b2610c4e565b6040516101bf91906111d8565b60405180910390f35b3480156101d457600080fd5b506101dd610c54565b005b3480156101eb57600080fd5b5061020660048036038101906102019190611934565b610d4b565b005b34801561021457600080fd5b5061022f600480360381019061022a9190611233565b610f15565b005b600047905090565b60006002600083815260200190815260200160002090508060010160009054906101000a900473ffffffffffffffffffffffffffffffffffffffff1673ffffffffffffffffffffffffffffffffffffffff163373ffffffffffffffffffffffffffffffffffffffff1614806102fd57508060000160009054906101000a900473ffffffffffffffffffffffffffffffffffffffff1673ffffffffffffffffffffffffffffffffffffffff163373ffffffffffffffffffffffffffffffffffffffff16145b61033c576040517f08c379a0000000000000000000000000000000000000000000000000000000008152600401610333906119c0565b60405180910390fd5b600060048111156103505761034f6117b9565b5b8160040160009054906101000a900460ff166004811115610374576103736117b9565b5b146103b4576040517f08c379a00000000000000000000000000000000000000000000000000000000081526004016103ab90611a2c565b60405180910390fd5b60038160040160006101000a81548160ff021916908360048111156103dc576103db6117b9565b5b021790555060008160010160009054906101000a900473ffffffffffffffffffffffffffffffffffffffff1673ffffffffffffffffffffffffffffffffffffffff16826002015460405161042f90611a7d565b60006040518083038185875af1925050503d806000811461046c576040519150601f19603f3d011682016040523d82523d6000602084013e610471565b606091505b50509050806104b5576040517f08c379a00000000000000000000000000000000000000000000000000000000081526004016104ac90611ade565b60405180910390fd5b827f956fb32199d8b882b2039a14e1be35ab14f7a80b9089fc223f14b43937173e6060405160405180910390a2505050565b815183511480156104f9575080518251145b610538576040517f08c379a000000000000000000000000000000000000000000000000000000000815260040161052f90611b4a565b60405180910390fd5b6000805b83518110156105805783818151811061055857610557611b6a565b5b60200260200101518261056b9190611bc8565b9150808061057890611bfc565b91505061053c565b50803410156105c4576040517f08c379a00000000000000000000000000000000000000000000000000000000081526004016105bb90611c90565b60405180910390fd5b60005b845181101561087b57600160008154809291906105e390611bfc565b91905055506040518060e0016040528086838151811061060657610605611b6a565b5b602002602001015173ffffffffffffffffffffffffffffffffffffffff1681526020013373ffffffffffffffffffffffffffffffffffffffff16815260200185838151811061065857610657611b6a565b5b6020026020010151815260200160008152602001600060048111156106805761067f6117b9565b5b815260200184838151811061069857610697611b6a565b5b602002602001015181526020016000151581525060026000600154815260200190815260200160002060008201518160000160006101000a81548173ffffffffffffffffffffffffffffffffffffffff021916908373ffffffffffffffffffffffffffffffffffffffff16021790555060208201518160010160006101000a81548173ffffffffffffffffffffffffffffffffffffffff021916908373ffffffffffffffffffffffffffffffffffffffff160217905550604082015181600201556060820151816003015560808201518160040160006101000a81548160ff0219169083600481111561078e5761078d6117b9565b5b021790555060a08201518160050190816107a89190611ebc565b5060c08201518160060160006101000a81548160ff0219169083151502179055509050503373ffffffffffffffffffffffffffffffffffffffff168582815181106107f6576107f5611b6a565b5b602002602001015173ffffffffffffffffffffffffffffffffffffffff166001547fe9097a4f4eddc0e5906640fcd9e1193c9db52771536ca4c8b06ab4c40aa045d287858151811061084b5761084a611b6a565b5b602002602001015160405161086091906111d8565b60405180910390a4808061087390611bfc565b9150506105c7565b5050505050565b60006002600084815260200190815260200160002090508060000160009054906101000a900473ffffffffffffffffffffffffffffffffffffffff1673ffffffffffffffffffffffffffffffffffffffff163373ffffffffffffffffffffffffffffffffffffffff161461092b576040517f08c379a000000000000000000000000000000000000000000000000000000000815260040161092290611fda565b60405180910390fd5b8060060160009054906101000a900460ff1661097c576040517f08c379a000000000000000000000000000000000000000000000000000000000815260040161097390612046565b60405180910390fd5b8115610a9b576000816003015482600201546109989190612066565b90508160030154826002018190555060008260060160006101000a81548160ff02191690831515021790555060008260010160009054906101000a900473ffffffffffffffffffffffffffffffffffffffff1673ffffffffffffffffffffffffffffffffffffffff1682604051610a0e90611a7d565b60006040518083038185875af1925050503d8060008114610a4b576040519150601f19603f3d011682016040523d82523d6000602084013e610a50565b606091505b5050905080610a94576040517f08c379a0000000000000000000000000000000000000000000000000000000008152600401610a8b90611ade565b60405180910390fd5b5050610ac3565b60008160060160006101000a81548160ff021916908315150217905550600081600301819055505b827fddfc2e5da3767126816d7eb902c7e76bf0c59ac2ec84078db4268b2cc440565f838360020154604051610af992919061209a565b60405180910390a2505050565b60008054906101000a900473ffffffffffffffffffffffffffffffffffffffff1681565b60026020528060005260406000206000915090508060000160009054906101000a900473ffffffffffffffffffffffffffffffffffffffff16908060010160009054906101000a900473ffffffffffffffffffffffffffffffffffffffff16908060020154908060030154908060040160009054906101000a900460ff1690806005018054610bb890611cdf565b80601f0160208091040260200160405190810160405280929190818152602001828054610be490611cdf565b8015610c315780601f10610c0657610100808354040283529160200191610c31565b820191906000526020600020905b815481529060010190602001808311610c1457829003601f168201915b5050505050908060060160009054906101000a900460ff16905087565b60015481565b60008054906101000a900473ffffffffffffffffffffffffffffffffffffffff1673ffffffffffffffffffffffffffffffffffffffff163373ffffffffffffffffffffffffffffffffffffffff1614610ce2576040517f08c379a0000000000000000000000000000000000000000000000000000000008152600401610cd99061210f565b60405180910390fd5b60008054906101000a900473ffffffffffffffffffffffffffffffffffffffff1673ffffffffffffffffffffffffffffffffffffffff166108fc479081150290604051600060405180830381858888f19350505050158015610d48573d6000803e3d6000fd5b50565b60006002600084815260200190815260200160002090508060010160009054906101000a900473ffffffffffffffffffffffffffffffffffffffff1673ffffffffffffffffffffffffffffffffffffffff163373ffffffffffffffffffffffffffffffffffffffff1614610df4576040517f08c379a0000000000000000000000000000000000000000000000000000000008152600401610deb9061217b565b60405180910390fd5b60006004811115610e0857610e076117b9565b5b8160040160009054906101000a900460ff166004811115610e2c57610e2b6117b9565b5b14610e6c576040517f08c379a0000000000000000000000000000000000000000000000000000000008152600401610e63906121e7565b60405180910390fd5b80600201548210610eb2576040517f08c379a0000000000000000000000000000000000000000000000000000000008152600401610ea990612253565b60405180910390fd5b81816003018190555060018160060160006101000a81548160ff021916908315150217905550827f361a6d6b93d4a1ed551510370f928b8dbe4bdd89f2949b2bf127804840cd55d983604051610f0891906111d8565b60405180910390a2505050565b60006002600083815260200190815260200160002090508060010160009054906101000a900473ffffffffffffffffffffffffffffffffffffffff1673ffffffffffffffffffffffffffffffffffffffff163373ffffffffffffffffffffffffffffffffffffffff161480610fd5575060008054906101000a900473ffffffffffffffffffffffffffffffffffffffff1673ffffffffffffffffffffffffffffffffffffffff163373ffffffffffffffffffffffffffffffffffffffff16145b611014576040517f08c379a000000000000000000000000000000000000000000000000000000000815260040161100b906119c0565b60405180910390fd5b60006004811115611028576110276117b9565b5b8160040160009054906101000a900460ff16600481111561104c5761104b6117b9565b5b1461108c576040517f08c379a0000000000000000000000000000000000000000000000000000000008152600401611083906122bf565b60405180910390fd5b60028160040160006101000a81548160ff021916908360048111156110b4576110b36117b9565b5b021790555060008160000160009054906101000a900473ffffffffffffffffffffffffffffffffffffffff1673ffffffffffffffffffffffffffffffffffffffff16826002015460405161110790611a7d565b60006040518083038185875af1925050503d8060008114611144576040519150601f19603f3d011682016040523d82523d6000602084013e611149565b606091505b505090508061118d576040517f08c379a00000000000000000000000000000000000000000000000000000000081526004016111849061232b565b60405180910390fd5b827f01e74d1f4f418e68629246efc4a29d98199e9c9b9c3653bdbfee74d2ad4ac6a360405160405180910390a2505050565b6000819050919050565b6111d2816111bf565b82525050565b60006020820190506111ed60008301846111c9565b92915050565b6000604051905090565b600080fd5b600080fd5b611210816111bf565b811461121b57600080fd5b50565b60008135905061122d81611207565b92915050565b600060208284031215611249576112486111fd565b5b60006112578482850161121e565b91505092915050565b600080fd5b6000601f19601f8301169050919050565b7f4e487b7100000000000000000000000000000000000000000000000000000000600052604160045260246000fd5b6112ae82611265565b810181811067ffffffffffffffff821117156112cd576112cc611276565b5b80604052505050565b60006112e06111f3565b90506112ec82826112a5565b919050565b600067ffffffffffffffff82111561130c5761130b611276565b5b602082029050602081019050919050565b600080fd5b600073ffffffffffffffffffffffffffffffffffffffff82169050919050565b600061134d82611322565b9050919050565b61135d81611342565b811461136857600080fd5b50565b60008135905061137a81611354565b92915050565b600061139361138e846112f1565b6112d6565b905080838252602082019050602084028301858111156113b6576113b561131d565b5b835b818110156113df57806113cb888261136b565b8452602084019350506020810190506113b8565b5050509392505050565b600082601f8301126113fe576113fd611260565b5b813561140e848260208601611380565b91505092915050565b600067ffffffffffffffff82111561143257611431611276565b5b602082029050602081019050919050565b600061145661145184611417565b6112d6565b905080838252602082019050602084028301858111156114795761147861131d565b5b835b818110156114a2578061148e888261121e565b84526020840193505060208101905061147b565b5050509392505050565b600082601f8301126114c1576114c0611260565b5b81356114d1848260208601611443565b91505092915050565b600067ffffffffffffffff8211156114f5576114f4611276565b5b602082029050602081019050919050565b600080fd5b600067ffffffffffffffff82111561152657611525611276565b5b61152f82611265565b9050602081019050919050565b82818337600083830152505050565b600061155e6115598461150b565b6112d6565b90508281526020810184848401111561157a57611579611506565b5b61158584828561153c565b509392505050565b600082601f8301126115a2576115a1611260565b5b81356115b284826020860161154b565b91505092915050565b60006115ce6115c9846114da565b6112d6565b905080838252602082019050602084028301858111156115f1576115f061131d565b5b835b8181101561163857803567ffffffffffffffff81111561161657611615611260565b5b808601611623898261158d565b855260208501945050506020810190506115f3565b5050509392505050565b600082601f83011261165757611656611260565b5b81356116678482602086016115bb565b91505092915050565b600080600060608486031215611689576116886111fd565b5b600084013567ffffffffffffffff8111156116a7576116a6611202565b5b6116b3868287016113e9565b935050602084013567ffffffffffffffff8111156116d4576116d3611202565b5b6116e0868287016114ac565b925050604084013567ffffffffffffffff81111561170157611700611202565b5b61170d86828701611642565b9150509250925092565b60008115159050919050565b61172c81611717565b811461173757600080fd5b50565b60008135905061174981611723565b92915050565b60008060408385031215611766576117656111fd565b5b60006117748582860161121e565b92505060206117858582860161173a565b9150509250929050565b61179881611342565b82525050565b60006020820190506117b3600083018461178f565b92915050565b7f4e487b7100000000000000000000000000000000000000000000000000000000600052602160045260246000fd5b600581106117f9576117f86117b9565b5b50565b600081905061180a826117e8565b919050565b600061181a826117fc565b9050919050565b61182a8161180f565b82525050565b600081519050919050565b600082825260208201905092915050565b60005b8381101561186a57808201518184015260208101905061184f565b60008484015250505050565b600061188182611830565b61188b818561183b565b935061189b81856020860161184c565b6118a481611265565b840191505092915050565b6118b881611717565b82525050565b600060e0820190506118d3600083018a61178f565b6118e0602083018961178f565b6118ed60408301886111c9565b6118fa60608301876111c9565b6119076080830186611821565b81810360a08301526119198185611876565b905061192860c08301846118af565b98975050505050505050565b6000806040838503121561194b5761194a6111fd565b5b60006119598582860161121e565b925050602061196a8582860161121e565b9150509250929050565b7f556e617574686f72697a65640000000000000000000000000000000000000000600082015250565b60006119aa600c8361183b565b91506119b582611974565b602082019050919050565b600060208201905081810360008301526119d98161199d565b9050919050565b7f43616e6e6f742063616e63656c00000000000000000000000000000000000000600082015250565b6000611a16600d8361183b565b9150611a21826119e0565b602082019050919050565b60006020820190508181036000830152611a4581611a09565b9050919050565b600081905092915050565b50565b6000611a67600083611a4c565b9150611a7282611a57565b600082019050919050565b6000611a8882611a5a565b9150819050919050565b7f526566756e64206661696c656400000000000000000000000000000000000000600082015250565b6000611ac8600d8361183b565b9150611ad382611a92565b602082019050919050565b60006020820190508181036000830152611af781611abb565b9050919050565b7f4172726179206d69736d61746368000000000000000000000000000000000000600082015250565b6000611b34600e8361183b565b9150611b3f82611afe565b602082019050919050565b60006020820190508181036000830152611b6381611b27565b9050919050565b7f4e487b7100000000000000000000000000000000000000000000000000000000600052603260045260246000fd5b7f4e487b7100000000000000000000000000000000000000000000000000000000600052601160045260246000fd5b6000611bd3826111bf565b9150611bde836111bf565b9250828201905080821115611bf657611bf5611b99565b5b92915050565b6000611c07826111bf565b91507fffffffffffffffffffffffffffffffffffffffffffffffffffffffffffffffff8203611c3957611c38611b99565b5b600182019050919050565b7f496e73756666696369656e742066756e64732073656e74000000000000000000600082015250565b6000611c7a60178361183b565b9150611c8582611c44565b602082019050919050565b60006020820190508181036000830152611ca981611c6d565b9050919050565b7f4e487b7100000000000000000000000000000000000000000000000000000000600052602260045260246000fd5b60006002820490506001821680611cf757607f821691505b602082108103611d0a57611d09611cb0565b5b50919050565b60008190508160005260206000209050919050565b60006020601f8301049050919050565b600082821b905092915050565b600060088302611d727fffffffffffffffffffffffffffffffffffffffffffffffffffffffffffffffff82611d35565b611d7c8683611d35565b95508019841693508086168417925050509392505050565b6000819050919050565b6000611db9611db4611daf846111bf565b611d94565b6111bf565b9050919050565b6000819050919050565b611dd383611d9e565b611de7611ddf82611dc0565b848454611d42565b825550505050565b600090565b611dfc611def565b611e07818484611dca565b505050565b5b81811015611e2b57611e20600082611df4565b600181019050611e0d565b5050565b601f821115611e7057611e4181611d10565b611e4a84611d25565b81016020851015611e59578190505b611e6d611e6585611d25565b830182611e0c565b50505b505050565b600082821c905092915050565b6000611e9360001984600802611e75565b1980831691505092915050565b6000611eac8383611e82565b9150826002028217905092915050565b611ec582611830565b67ffffffffffffffff811115611ede57611edd611276565b5b611ee88254611cdf565b611ef3828285611e2f565b600060209050601f831160018114611f265760008415611f14578287015190505b611f1e8582611ea0565b865550611f86565b601f198416611f3486611d10565b60005b82811015611f5c57848901518255600182019150602085019450602081019050611f37565b86831015611f795784890151611f75601f891682611e82565b8355505b6001600288020188555050505b505050505050565b7f4f6e6c792073656c6c6572000000000000000000000000000000000000000000600082015250565b6000611fc4600b8361183b565b9150611fcf82611f8e565b602082019050919050565b60006020820190508181036000830152611ff381611fb7565b9050919050565b7f4e6f20616374697665206e65676f74696174696f6e0000000000000000000000600082015250565b600061203060158361183b565b915061203b82611ffa565b602082019050919050565b6000602082019050818103600083015261205f81612023565b9050919050565b6000612071826111bf565b915061207c836111bf565b925082820390508181111561209457612093611b99565b5b92915050565b60006040820190506120af60008301856118af565b6120bc60208301846111c9565b9392505050565b7f4f6e6c79206f776e657200000000000000000000000000000000000000000000600082015250565b60006120f9600a8361183b565b9150612104826120c3565b602082019050919050565b60006020820190508181036000830152612128816120ec565b9050919050565b7f4f6e6c7920627579657200000000000000000000000000000000000000000000600082015250565b6000612165600a8361183b565b91506121708261212f565b602082019050919050565b6000602082019050818103600083015261219481612158565b9050919050565b7f496e76616c696420737461746500000000000000000000000000000000000000600082015250565b60006121d1600d8361183b565b91506121dc8261219b565b602082019050919050565b60006020820190508181036000830152612200816121c4565b9050919050565b7f4d757374206265206c6f776572207468616e206f726967696e616c0000000000600082015250565b600061223d601b8361183b565b915061224882612207565b602082019050919050565b6000602082019050818103600083015261226c81612230565b9050919050565b7f496e76616c696420737461747573000000000000000000000000000000000000600082015250565b60006122a9600e8361183b565b91506122b482612273565b602082019050919050565b600060208201905081810360008301526122d88161229c565b9050919050565b7f5472616e7366657220746f2073656c6c6572206661696c656400000000000000600082015250565b600061231560198361183b565b9150612320826122df565b602082019050919050565b6000602082019050818103600083015261234481612308565b905091905056fea2646970667358221220bf8fc999c2d5c20b44d2001c00e9f69bf7496190f10fd65e28ddf7575f2ae8d864736f6c63430008140033",
  "linkReferences": {},
  "deployedLinkReferences": {}
}