{
  "abi": [
    {
      "inputs": [],
      "stateMutability": "nonpayable",
      "type": "constructor"
    },
    {
      "anonymous": false,
      "inputs": [
        {
          "indexed": false,
          "internalType": "uint256",
          "name": "txId",
          "type": "uint256"
        }
      ],
      "name": "ItemReceived",
      "type": "event"
    },
    {
      "anonymous": false,
      "inputs": [
        {
          "indexed": false,
          "internalType": "uint256",
          "name": "txId",
          "type": "uint256"
        },
        {
          "indexed": false,
          "internalType": "address",
          "name": "seller",
          "type": "address"
        },
        {
          "indexed": false,
          "internalType": "address",
          "name": "buyer",
          "type": "address"
        },
        {
          "indexed": false,
          "internalType": "uint256",
          "name": "amount",
          "type": "uint256"
        }
      ],
      "name": "TransactionCreated",
      "type": "event"
    },
    {
      "inputs": [
        {
          "internalType": "uint256",
          "name": "_txId",
          "type": "uint256"
        }
      ],
      "name": "confirmDelivery",
      "outputs": [],
      "stateMutability": "nonpayable",
      "type": "function"
    },
    {
      "inputs": [
        {
          "internalType": "address",
          "name": "_seller",
          "type": "address"
        },
        {
          "internalType": "string",
          "name": "_productSku",
          "type": "string"
        }
      ],
      "name": "createTransaction",
      "outputs": [],
      "stateMutability": "payable",
      "type": "function"
    },
    {
      "inputs": [],
      "name": "emergencyWithdraw",
      "outputs": [],
      "stateMutability": "nonpayable",
      "type": "function"
    },
    {
      "inputs": [],
      "name": "getBalance",
      "outputs": [
        {
          "internalType": "uint256",
          "name": "",
          "type": "uint256"
        }
      ],
      "stateMutability": "view",
      "type": "function"
    },
    {
      "inputs": [],
      "name": "owner",
      "outputs": [
        {
          "internalType": "address",
          "name": "",
          "type": "address"
        }
      ],
      "stateMutability": "view",
      "type": "function"
    },
    {
      "inputs": [],
      "name": "transactionCount",
      "outputs": [
        {
          "internalType": "uint256",
          "name": "",
          "type": "uint256"
        }
      ],
      "stateMutability": "view",
      "type": "function"
    },
    {
      "inputs": [
        {
          "internalType": "uint256",
          "name": "",
          "type": "uint256"
        }
      ],
      "name": "transactions",
      "outputs": [
        {
          "internalType": "address",
          "name": "seller",
          "type": "address"
        },
        {
          "internalType": "address",
          "name": "buyer",
          "type": "address"
        },
        {
          "internalType": "uint256",
          "name": "amount",
          "type": "uint256"
        },
        {
          "internalType": "enum HarsaEscrow.State",
          "name": "status",
          "type": "uint8"
        },
        {
          "internalType": "string",
          "name": "productSku",
          "type": "string"
        }
      ],
      "stateMutability": "view",
      "type": "function"
    }
  ],
  "devdoc": {
    "kind": "dev",
    "methods": {},
    "version": 1
  },
  "evm": {
    "assembly": "    /* \"HarsaEscrow.sol\":61:2184  contract HarsaEscrow {... */\n  mstore(0x40, 0x80)\n    /* \"HarsaEscrow.sol\":672:723  constructor() {... */\n  callvalue\n  dup1\n  iszero\n  tag_1\n  jumpi\n  0x00\n  dup1\n  revert\ntag_1:\n  pop\n    /* \"HarsaEscrow.sol\":697:702  owner */\n  0x00\n    /* \"HarsaEscrow.sol\":697:715  owner = msg.sender */\n  dup1\n  sload\n  not(sub(shl(0xa0, 0x01), 0x01))\n  and\n    /* \"HarsaEscrow.sol\":705:715  msg.sender */\n  caller\n    /* \"HarsaEscrow.sol\":697:715  owner = msg.sender */\n  or\n  swap1\n  sstore\n    /* \"HarsaEscrow.sol\":61:2184  contract HarsaEscrow {... */\n  dataSize(sub_0)\n  dup1\n  dataOffset(sub_0)\n  0x00\n  codecopy\n  0x00\n  return\nstop\n\nsub_0: assembly {\n        /* \"HarsaEscrow.sol\":61:2184  contract HarsaEscrow {... */\n      mstore(0x40, 0x80)\n      jumpi(tag_1, lt(calldatasize, 0x04))\n      shr(0xe0, calldataload(0x00))\n      dup1\n      0xb77bf600\n      gt\n      tag_9\n      jumpi\n      dup1\n      0xb77bf600\n      eq\n      tag_5\n      jumpi\n      dup1\n      0xdb2e21bc\n      eq\n      tag_6\n      jumpi\n      dup1\n      0xeb2fadf0\n      eq\n      tag_7\n      jumpi\n      dup1\n      0xfd84cb97\n      eq\n      tag_8\n      jumpi\n      0x00\n      dup1\n      revert\n    tag_9:\n      dup1\n      0x12065fe0\n      eq\n      tag_2\n      jumpi\n      dup1\n      0x8da5cb5b\n      eq\n      tag_3\n      jumpi\n      dup1\n      0x9ace38c2\n      eq\n      tag_4\n      jumpi\n    tag_1:\n      0x00\n      dup1\n      revert\n        /* \"HarsaEscrow.sol\":2082:2181  function getBalance() public view returns (uint256) {... */\n    tag_2:\n      callvalue\n      dup1\n      iszero\n      tag_10\n      jumpi\n      0x00\n      dup1\n      revert\n    tag_10:\n      pop\n        /* \"HarsaEscrow.sol\":2152:2173  address(this).balance */\n      selfbalance\n        /* \"HarsaEscrow.sol\":2082:2181  function getBalance() public view returns (uint256) {... */\n    tag_11:\n      mload(0x40)\n        /* \"#utility.yul\":160:185   */\n      swap1\n      dup2\n      mstore\n        /* \"#utility.yul\":148:150   */\n      0x20\n        /* \"#utility.yul\":133:151   */\n      add\n        /* \"HarsaEscrow.sol\":2082:2181  function getBalance() public view returns (uint256) {... */\n    tag_13:\n      mload(0x40)\n      dup1\n      swap2\n      sub\n      swap1\n      return\n        /* \"HarsaEscrow.sol\":89:109  address public owner */\n    tag_3:\n      callvalue\n      dup1\n      iszero\n      tag_15\n      jumpi\n      0x00\n      dup1\n      revert\n    tag_15:\n      pop\n      sload(0x00)\n      tag_16\n      swap1\n      sub(shl(0xa0, 0x01), 0x01)\n      and\n      dup2\n      jump\n    tag_16:\n      mload(0x40)\n      sub(shl(0xa0, 0x01), 0x01)\n        /* \"#utility.yul\":360:415   */\n      swap1\n      swap2\n      and\n        /* \"#utility.yul\":342:416   */\n      dup2\n      mstore\n        /* \"#utility.yul\":330:332   */\n      0x20\n        /* \"#utility.yul\":315:333   */\n      add\n        /* \"HarsaEscrow.sol\":89:109  address public owner */\n      tag_13\n        /* \"#utility.yul\":196:422   */\n      jump\n        /* \"HarsaEscrow.sol\":398:449  mapping(uint256 => Transaction) public transactions */\n    tag_4:\n      callvalue\n      dup1\n      iszero\n      tag_20\n      jumpi\n      0x00\n      dup1\n      revert\n    tag_20:\n      pop\n      tag_21\n      tag_22\n      calldatasize\n      0x04\n      tag_23\n      jump\t// in\n    tag_22:\n      tag_24\n      jump\t// in\n    tag_21:\n      mload(0x40)\n      tag_13\n      swap6\n      swap5\n      swap4\n      swap3\n      swap2\n      swap1\n      tag_26\n      jump\t// in\n        /* \"HarsaEscrow.sol\":456:487  uint256 public transactionCount */\n    tag_5:\n      callvalue\n      dup1\n      iszero\n      tag_27\n      jumpi\n      0x00\n      dup1\n      revert\n    tag_27:\n      pop\n      tag_11\n      sload(0x02)\n      dup2\n      jump\n        /* \"HarsaEscrow.sol\":1963:2074  function emergencyWithdraw() public onlyOwner {... */\n    tag_6:\n      callvalue\n      dup1\n      iszero\n      tag_31\n      jumpi\n      0x00\n      dup1\n      revert\n    tag_31:\n      pop\n      tag_32\n      tag_33\n      jump\t// in\n    tag_32:\n      stop\n        /* \"HarsaEscrow.sol\":834:1433  function createTransaction(... */\n    tag_7:\n      tag_32\n      tag_35\n      calldatasize\n      0x04\n      tag_36\n      jump\t// in\n    tag_35:\n      tag_37\n      jump\t// in\n        /* \"HarsaEscrow.sol\":1441:1955  function confirmDelivery(uint256 _txId) public {... */\n    tag_8:\n      callvalue\n      dup1\n      iszero\n      tag_38\n      jumpi\n      0x00\n      dup1\n      revert\n    tag_38:\n      pop\n      tag_32\n      tag_40\n      calldatasize\n      0x04\n      tag_23\n      jump\t// in\n    tag_40:\n      tag_41\n      jump\t// in\n        /* \"HarsaEscrow.sol\":398:449  mapping(uint256 => Transaction) public transactions */\n    tag_24:\n      0x01\n      0x20\n      dup2\n      swap1\n      mstore\n      0x00\n      swap2\n      dup3\n      mstore\n      0x40\n      swap1\n      swap2\n      keccak256\n      dup1\n      sload\n      swap2\n      dup2\n      add\n      sload\n      0x02\n      dup3\n      add\n      sload\n      0x03\n      dup4\n      add\n      sload\n      0x04\n      dup5\n      add\n      dup1\n      sload\n      sub(shl(0xa0, 0x01), 0x01)\n      swap7\n      dup8\n      and\n      swap7\n      swap1\n      swap5\n      and\n      swap5\n      swap3\n      swap4\n      0xff\n      swap1\n      swap3\n      and\n      swap3\n      swap2\n      tag_43\n      swap1\n      tag_44\n      jump\t// in\n    tag_43:\n      dup1\n      0x1f\n      add\n      0x20\n      dup1\n      swap2\n      div\n      mul\n      0x20\n      add\n      mload(0x40)\n      swap1\n      dup2\n      add\n      0x40\n      mstore\n      dup1\n      swap3\n      swap2\n      swap1\n      dup2\n      dup2\n      mstore\n      0x20\n      add\n      dup3\n      dup1\n      sload\n      tag_45\n      swap1\n      tag_44\n      jump\t// in\n    tag_45:\n      dup1\n      iszero\n      tag_46\n      jumpi\n      dup1\n      0x1f\n      lt\n      tag_47\n      jumpi\n      0x0100\n      dup1\n      dup4\n      sload\n      div\n      mul\n      dup4\n      mstore\n      swap2\n      0x20\n      add\n      swap2\n      jump(tag_46)\n    tag_47:\n      dup3\n      add\n      swap2\n      swap1\n      0x00\n      mstore\n      keccak256(0x00, 0x20)\n      swap1\n    tag_48:\n      dup2\n      sload\n      dup2\n      mstore\n      swap1\n      0x01\n      add\n      swap1\n      0x20\n      add\n      dup1\n      dup4\n      gt\n      tag_48\n      jumpi\n      dup3\n      swap1\n      sub\n      0x1f\n      and\n      dup3\n      add\n      swap2\n    tag_46:\n      pop\n      pop\n      pop\n      pop\n      pop\n      swap1\n      pop\n      dup6\n      jump\t// out\n        /* \"HarsaEscrow.sol\":1963:2074  function emergencyWithdraw() public onlyOwner {... */\n    tag_33:\n        /* \"HarsaEscrow.sol\":785:790  owner */\n      and(sub(shl(0xa0, 0x01), 0x01), sload(0x00))\n        /* \"HarsaEscrow.sol\":771:781  msg.sender */\n      caller\n        /* \"HarsaEscrow.sol\":771:790  msg.sender == owner */\n      eq\n        /* \"HarsaEscrow.sol\":763:806  require(msg.sender == owner, \"Bukan owner\") */\n      tag_50\n      jumpi\n      mload(0x40)\n      shl(0xe5, 0x461bcd)\n      dup2\n      mstore\n        /* \"#utility.yul\":3537:3539   */\n      0x20\n        /* \"HarsaEscrow.sol\":763:806  require(msg.sender == owner, \"Bukan owner\") */\n      0x04\n      dup3\n      add\n        /* \"#utility.yul\":3519:3540   */\n      mstore\n        /* \"#utility.yul\":3576:3578   */\n      0x0b\n        /* \"#utility.yul\":3556:3574   */\n      0x24\n      dup3\n      add\n        /* \"#utility.yul\":3549:3579   */\n      mstore\n        /* \"#utility.yul\":3615:3628   */\n      0x42756b616e206f776e6572000000000000000000000000000000000000000000\n        /* \"#utility.yul\":3595:3613   */\n      0x44\n      dup3\n      add\n        /* \"#utility.yul\":3588:3629   */\n      mstore\n        /* \"#utility.yul\":3646:3664   */\n      0x64\n      add\n        /* \"HarsaEscrow.sol\":763:806  require(msg.sender == owner, \"Bukan owner\") */\n    tag_51:\n      mload(0x40)\n      dup1\n      swap2\n      sub\n      swap1\n      revert\n    tag_50:\n        /* \"HarsaEscrow.sol\":2028:2033  owner */\n      0x00\n      dup1\n      sload\n        /* \"HarsaEscrow.sol\":2020:2066  payable(owner).transfer(address(this).balance) */\n      mload(0x40)\n      sub(shl(0xa0, 0x01), 0x01)\n        /* \"HarsaEscrow.sol\":2028:2033  owner */\n      swap1\n      swap2\n      and\n      swap2\n        /* \"HarsaEscrow.sol\":2044:2065  address(this).balance */\n      selfbalance\n        /* \"HarsaEscrow.sol\":2020:2066  payable(owner).transfer(address(this).balance) */\n      dup1\n      iszero\n      0x08fc\n      mul\n      swap3\n        /* \"HarsaEscrow.sol\":2044:2065  address(this).balance */\n      swap1\n      swap2\n        /* \"HarsaEscrow.sol\":2020:2066  payable(owner).transfer(address(this).balance) */\n      dup2\n        /* \"HarsaEscrow.sol\":2028:2033  owner */\n      dup2\n        /* \"HarsaEscrow.sol\":2020:2066  payable(owner).transfer(address(this).balance) */\n      dup2\n        /* \"HarsaEscrow.sol\":2044:2065  address(this).balance */\n      dup6\n        /* \"HarsaEscrow.sol\":2028:2033  owner */\n      dup9\n        /* \"HarsaEscrow.sol\":2020:2066  payable(owner).transfer(address(this).balance) */\n      dup9\n      call\n      swap4\n      pop\n      pop\n      pop\n      pop\n      iszero\n      dup1\n      iszero\n      tag_55\n      jumpi\n      returndatasize\n      0x00\n      dup1\n      returndatacopy\n      revert(0x00, returndatasize)\n    tag_55:\n      pop\n        /* \"HarsaEscrow.sol\":1963:2074  function emergencyWithdraw() public onlyOwner {... */\n      jump\t// out\n        /* \"HarsaEscrow.sol\":834:1433  function createTransaction(... */\n    tag_37:\n        /* \"HarsaEscrow.sol\":976:977  0 */\n      0x00\n        /* \"HarsaEscrow.sol\":964:973  msg.value */\n      callvalue\n        /* \"HarsaEscrow.sol\":964:977  msg.value > 0 */\n      gt\n        /* \"HarsaEscrow.sol\":956:999  require(msg.value > 0, \"Duitnya belum ada\") */\n      tag_57\n      jumpi\n      mload(0x40)\n      shl(0xe5, 0x461bcd)\n      dup2\n      mstore\n        /* \"#utility.yul\":3877:3879   */\n      0x20\n        /* \"HarsaEscrow.sol\":956:999  require(msg.value > 0, \"Duitnya belum ada\") */\n      0x04\n      dup3\n      add\n        /* \"#utility.yul\":3859:3880   */\n      mstore\n        /* \"#utility.yul\":3916:3918   */\n      0x11\n        /* \"#utility.yul\":3896:3914   */\n      0x24\n      dup3\n      add\n        /* \"#utility.yul\":3889:3919   */\n      mstore\n        /* \"#utility.yul\":3955:3974   */\n      0x447569746e79612062656c756d20616461000000000000000000000000000000\n        /* \"#utility.yul\":3935:3953   */\n      0x44\n      dup3\n      add\n        /* \"#utility.yul\":3928:3975   */\n      mstore\n        /* \"#utility.yul\":3992:4010   */\n      0x64\n      add\n        /* \"HarsaEscrow.sol\":956:999  require(msg.value > 0, \"Duitnya belum ada\") */\n      tag_51\n        /* \"#utility.yul\":3675:4016   */\n      jump\n        /* \"HarsaEscrow.sol\":956:999  require(msg.value > 0, \"Duitnya belum ada\") */\n    tag_57:\n        /* \"HarsaEscrow.sol\":1012:1028  transactionCount */\n      0x02\n        /* \"HarsaEscrow.sol\":1012:1030  transactionCount++ */\n      dup1\n      sload\n      swap1\n        /* \"HarsaEscrow.sol\":1012:1028  transactionCount */\n      0x00\n        /* \"HarsaEscrow.sol\":1012:1030  transactionCount++ */\n      tag_60\n      dup4\n      tag_61\n      jump\t// in\n    tag_60:\n      swap1\n      swap2\n      sstore\n      pop\n      pop\n        /* \"HarsaEscrow.sol\":1074:1276  Transaction({... */\n      0x40\n      dup1\n      mload\n      0xa0\n      dup2\n      add\n      dup3\n      mstore\n      sub(shl(0xa0, 0x01), 0x01)\n      dup5\n      and\n      dup2\n      mstore\n        /* \"HarsaEscrow.sol\":1138:1148  msg.sender */\n      caller\n        /* \"HarsaEscrow.sol\":1074:1276  Transaction({... */\n      0x20\n      dup3\n      add\n      mstore\n        /* \"HarsaEscrow.sol\":1171:1180  msg.value */\n      callvalue\n        /* \"HarsaEscrow.sol\":1074:1276  Transaction({... */\n      swap2\n      dup2\n      add\n      swap2\n      swap1\n      swap2\n      mstore\n      0x60\n      dup2\n      add\n        /* \"HarsaEscrow.sol\":1203:1226  State.AWAITING_DELIVERY */\n      0x01\n        /* \"HarsaEscrow.sol\":1074:1276  Transaction({... */\n      dup2\n      mstore\n      0x20\n      swap1\n      dup2\n      add\n      dup4\n      swap1\n      mstore\n        /* \"HarsaEscrow.sol\":1054:1070  transactionCount */\n      0x02\n      dup1\n      sload\n      0x00\n        /* \"HarsaEscrow.sol\":1041:1071  transactions[transactionCount] */\n      swap1\n      dup2\n      mstore\n        /* \"HarsaEscrow.sol\":1041:1053  transactions */\n      0x01\n        /* \"HarsaEscrow.sol\":1041:1071  transactions[transactionCount] */\n      dup1\n      dup5\n      mstore\n      0x40\n      swap2\n      dup3\n      swap1\n      keccak256\n        /* \"HarsaEscrow.sol\":1041:1276  transactions[transactionCount] = Transaction({... */\n      dup6\n      mload\n      dup2\n      sload\n      0xffffffffffffffffffffffff0000000000000000000000000000000000000000\n      swap1\n      dup2\n      and\n      sub(shl(0xa0, 0x01), 0x01)\n      swap3\n      dup4\n      and\n      or\n      dup4\n      sstore\n      swap6\n      dup8\n      add\n      mload\n      dup3\n      dup5\n      add\n      dup1\n      sload\n      swap1\n      swap8\n      and\n      swap2\n      and\n      or\n      swap1\n      swap5\n      sstore\n      swap1\n      dup5\n      add\n      mload\n      swap2\n      dup4\n      add\n      swap2\n      swap1\n      swap2\n      sstore\n      0x60\n      dup4\n      add\n      mload\n      0x03\n      dup1\n      dup5\n      add\n      dup1\n      sload\n      swap3\n      swap4\n      swap1\n      swap3\n      not(0xff)\n      and\n      swap2\n      dup5\n      swap1\n      dup2\n      gt\n      iszero\n      tag_66\n      jumpi\n      tag_66\n      tag_64\n      jump\t// in\n    tag_66:\n      mul\n      or\n      swap1\n      sstore\n      pop\n      0x80\n      dup3\n      add\n      mload\n      0x04\n      dup3\n      add\n      swap1\n      tag_67\n      swap1\n      dup3\n      tag_68\n      jump\t// in\n    tag_67:\n      pop\n      pop\n        /* \"HarsaEscrow.sol\":1327:1343  transactionCount */\n      sload(0x02)\n        /* \"HarsaEscrow.sol\":1294:1425  TransactionCreated(... */\n      0x40\n      dup1\n      mload\n        /* \"#utility.yul\":6659:6684   */\n      swap2\n      dup3\n      mstore\n      sub(shl(0xa0, 0x01), 0x01)\n        /* \"#utility.yul\":6781:6796   */\n      dup6\n      and\n        /* \"#utility.yul\":6776:6778   */\n      0x20\n        /* \"#utility.yul\":6761:6779   */\n      dup4\n      add\n        /* \"#utility.yul\":6754:6797   */\n      mstore\n        /* \"HarsaEscrow.sol\":1380:1390  msg.sender */\n      caller\n        /* \"#utility.yul\":6813:6831   */\n      swap1\n      dup3\n      add\n        /* \"#utility.yul\":6806:6849   */\n      mstore\n        /* \"HarsaEscrow.sol\":1405:1414  msg.value */\n      callvalue\n        /* \"#utility.yul\":6880:6882   */\n      0x60\n        /* \"#utility.yul\":6865:6883   */\n      dup3\n      add\n        /* \"#utility.yul\":6858:6892   */\n      mstore\n        /* \"HarsaEscrow.sol\":1294:1425  TransactionCreated(... */\n      0xe9097a4f4eddc0e5906640fcd9e1193c9db52771536ca4c8b06ab4c40aa045d2\n      swap2\n      pop\n        /* \"#utility.yul\":6646:6649   */\n      0x80\n        /* \"#utility.yul\":6631:6650   */\n      add\n        /* \"HarsaEscrow.sol\":1294:1425  TransactionCreated(... */\n      mload(0x40)\n      dup1\n      swap2\n      sub\n      swap1\n      log1\n        /* \"HarsaEscrow.sol\":834:1433  function createTransaction(... */\n      pop\n      pop\n      jump\t// out\n        /* \"HarsaEscrow.sol\":1441:1955  function confirmDelivery(uint256 _txId) public {... */\n    tag_41:\n        /* \"HarsaEscrow.sol\":1499:1522  Transaction storage txn */\n      0x00\n        /* \"HarsaEscrow.sol\":1525:1544  transactions[_txId] */\n      dup2\n      dup2\n      mstore\n        /* \"HarsaEscrow.sol\":1525:1537  transactions */\n      0x01\n        /* \"HarsaEscrow.sol\":1525:1544  transactions[_txId] */\n      0x20\n      dup2\n      swap1\n      mstore\n      0x40\n      swap1\n      swap2\n      keccak256\n        /* \"HarsaEscrow.sol\":1577:1586  txn.buyer */\n      swap1\n      dup2\n      add\n      sload\n      sub(shl(0xa0, 0x01), 0x01)\n      and\n        /* \"HarsaEscrow.sol\":1563:1573  msg.sender */\n      caller\n        /* \"HarsaEscrow.sol\":1563:1586  msg.sender == txn.buyer */\n      eq\n        /* \"HarsaEscrow.sol\":1555:1624  require(msg.sender == txn.buyer, \"Cuma pembeli yang bisa konfirmasi\") */\n      tag_72\n      jumpi\n      mload(0x40)\n      shl(0xe5, 0x461bcd)\n      dup2\n      mstore\n        /* \"#utility.yul\":7105:7107   */\n      0x20\n        /* \"HarsaEscrow.sol\":1555:1624  require(msg.sender == txn.buyer, \"Cuma pembeli yang bisa konfirmasi\") */\n      0x04\n      dup3\n      add\n        /* \"#utility.yul\":7087:7108   */\n      mstore\n        /* \"#utility.yul\":7144:7146   */\n      0x21\n        /* \"#utility.yul\":7124:7142   */\n      0x24\n      dup3\n      add\n        /* \"#utility.yul\":7117:7147   */\n      mstore\n        /* \"#utility.yul\":7183:7217   */\n      0x43756d612070656d62656c692079616e672062697361206b6f6e6669726d6173\n        /* \"#utility.yul\":7163:7181   */\n      0x44\n      dup3\n      add\n        /* \"#utility.yul\":7156:7218   */\n      mstore\n      shl(0xf8, 0x69)\n        /* \"#utility.yul\":7234:7252   */\n      0x64\n      dup3\n      add\n        /* \"#utility.yul\":7227:7258   */\n      mstore\n        /* \"#utility.yul\":7275:7294   */\n      0x84\n      add\n        /* \"HarsaEscrow.sol\":1555:1624  require(msg.sender == txn.buyer, \"Cuma pembeli yang bisa konfirmasi\") */\n      tag_51\n        /* \"#utility.yul\":6903:7300   */\n      jump\n        /* \"HarsaEscrow.sol\":1555:1624  require(msg.sender == txn.buyer, \"Cuma pembeli yang bisa konfirmasi\") */\n    tag_72:\n        /* \"HarsaEscrow.sol\":1671:1694  State.AWAITING_DELIVERY */\n      0x01\n        /* \"HarsaEscrow.sol\":1657:1667  txn.status */\n      0x03\n      dup1\n      dup4\n      add\n      sload\n      0xff\n      and\n      swap1\n        /* \"HarsaEscrow.sol\":1657:1694  txn.status == State.AWAITING_DELIVERY */\n      dup2\n      gt\n      iszero\n      tag_78\n      jumpi\n      tag_78\n      tag_64\n      jump\t// in\n    tag_78:\n      eq\n        /* \"HarsaEscrow.sol\":1635:1744  require(... */\n      tag_79\n      jumpi\n      mload(0x40)\n      shl(0xe5, 0x461bcd)\n      dup2\n      mstore\n        /* \"#utility.yul\":7507:7509   */\n      0x20\n        /* \"HarsaEscrow.sol\":1635:1744  require(... */\n      0x04\n      dup3\n      add\n        /* \"#utility.yul\":7489:7510   */\n      mstore\n        /* \"#utility.yul\":7546:7548   */\n      0x16\n        /* \"#utility.yul\":7526:7544   */\n      0x24\n      dup3\n      add\n        /* \"#utility.yul\":7519:7549   */\n      mstore\n        /* \"#utility.yul\":7585:7609   */\n      0x537461747573207472616e73616b73692073616c616800000000000000000000\n        /* \"#utility.yul\":7565:7583   */\n      0x44\n      dup3\n      add\n        /* \"#utility.yul\":7558:7610   */\n      mstore\n        /* \"#utility.yul\":7627:7645   */\n      0x64\n      add\n        /* \"HarsaEscrow.sol\":1635:1744  require(... */\n      tag_51\n        /* \"#utility.yul\":7305:7651   */\n      jump\n        /* \"HarsaEscrow.sol\":1635:1744  require(... */\n    tag_79:\n        /* \"HarsaEscrow.sol\":1757:1767  txn.status */\n      0x03\n      dup2\n      add\n        /* \"HarsaEscrow.sol\":1757:1784  txn.status = State.COMPLETE */\n      dup1\n      sload\n      not(0xff)\n      and\n        /* \"HarsaEscrow.sol\":1770:1784  State.COMPLETE */\n      0x02\n        /* \"HarsaEscrow.sol\":1757:1784  txn.status = State.COMPLETE */\n      swap1\n      dup2\n      or\n      swap1\n      swap2\n      sstore\n        /* \"HarsaEscrow.sol\":1824:1834  txn.seller */\n      dup2\n      sload\n        /* \"HarsaEscrow.sol\":1848:1858  txn.amount */\n      swap1\n      dup3\n      add\n      sload\n        /* \"HarsaEscrow.sol\":1816:1863  payable(txn.seller).call{value: txn.amount}(\"\") */\n      mload(0x40)\n      0x00\n      swap3\n      sub(shl(0xa0, 0x01), 0x01)\n        /* \"HarsaEscrow.sol\":1824:1834  txn.seller */\n      and\n      swap2\n        /* \"HarsaEscrow.sol\":1848:1858  txn.amount */\n      swap1\n      dup4\n        /* \"HarsaEscrow.sol\":1816:1863  payable(txn.seller).call{value: txn.amount}(\"\") */\n      dup2\n      dup2\n      dup2\n        /* \"HarsaEscrow.sol\":1848:1858  txn.amount */\n      dup6\n        /* \"HarsaEscrow.sol\":1824:1834  txn.seller */\n      dup8\n        /* \"HarsaEscrow.sol\":1816:1863  payable(txn.seller).call{value: txn.amount}(\"\") */\n      gas\n      call\n      swap3\n      pop\n      pop\n      pop\n      returndatasize\n      dup1\n      0x00\n      dup2\n      eq\n      tag_88\n      jumpi\n      mload(0x40)\n      swap2\n      pop\n      and(add(returndatasize, 0x3f), not(0x1f))\n      dup3\n      add\n      0x40\n      mstore\n      returndatasize\n      dup3\n      mstore\n      returndatasize\n      0x00\n      0x20\n      dup5\n      add\n      returndatacopy\n      jump(tag_87)\n    tag_88:\n      0x60\n      swap2\n      pop\n    tag_87:\n      pop\n        /* \"HarsaEscrow.sol\":1797:1863  (bool success, ) = payable(txn.seller).call{value: txn.amount}(\"\") */\n      pop\n      swap1\n      pop\n        /* \"HarsaEscrow.sol\":1882:1889  success */\n      dup1\n        /* \"HarsaEscrow.sol\":1874:1910  require(success, \"Gagal kirim dana\") */\n      tag_89\n      jumpi\n      mload(0x40)\n      shl(0xe5, 0x461bcd)\n      dup2\n      mstore\n        /* \"#utility.yul\":8068:8070   */\n      0x20\n        /* \"HarsaEscrow.sol\":1874:1910  require(success, \"Gagal kirim dana\") */\n      0x04\n      dup3\n      add\n        /* \"#utility.yul\":8050:8071   */\n      mstore\n        /* \"#utility.yul\":8107:8109   */\n      0x10\n        /* \"#utility.yul\":8087:8105   */\n      0x24\n      dup3\n      add\n        /* \"#utility.yul\":8080:8110   */\n      mstore\n        /* \"#utility.yul\":8146:8164   */\n      0x476167616c206b6972696d2064616e6100000000000000000000000000000000\n        /* \"#utility.yul\":8126:8144   */\n      0x44\n      dup3\n      add\n        /* \"#utility.yul\":8119:8165   */\n      mstore\n        /* \"#utility.yul\":8182:8200   */\n      0x64\n      add\n        /* \"HarsaEscrow.sol\":1874:1910  require(success, \"Gagal kirim dana\") */\n      tag_51\n        /* \"#utility.yul\":7866:8206   */\n      jump\n        /* \"HarsaEscrow.sol\":1874:1910  require(success, \"Gagal kirim dana\") */\n    tag_89:\n        /* \"HarsaEscrow.sol\":1928:1947  ItemReceived(_txId) */\n      mload(0x40)\n        /* \"#utility.yul\":160:185   */\n      dup4\n      dup2\n      mstore\n        /* \"HarsaEscrow.sol\":1928:1947  ItemReceived(_txId) */\n      0x01e74d1f4f418e68629246efc4a29d98199e9c9b9c3653bdbfee74d2ad4ac6a3\n      swap1\n        /* \"#utility.yul\":148:150   */\n      0x20\n        /* \"#utility.yul\":133:151   */\n      add\n        /* \"HarsaEscrow.sol\":1928:1947  ItemReceived(_txId) */\n      mload(0x40)\n      dup1\n      swap2\n      sub\n      swap1\n      log1\n        /* \"HarsaEscrow.sol\":1488:1955  {... */\n      pop\n      pop\n        /* \"HarsaEscrow.sol\":1441:1955  function confirmDelivery(uint256 _txId) public {... */\n      pop\n      jump\t// out\n        /* \"#utility.yul\":427:607   */\n    tag_23:\n        /* \"#utility.yul\":486:492   */\n      0x00\n        /* \"#utility.yul\":539:541   */\n      0x20\n        /* \"#utility.yul\":527:536   */\n      dup3\n        /* \"#utility.yul\":518:525   */\n      dup5\n        /* \"#utility.yul\":514:537   */\n      sub\n        /* \"#utility.yul\":510:542   */\n      slt\n        /* \"#utility.yul\":507:559   */\n      iszero\n      tag_101\n      jumpi\n        /* \"#utility.yul\":555:556   */\n      0x00\n        /* \"#utility.yul\":552:553   */\n      dup1\n        /* \"#utility.yul\":545:557   */\n      revert\n        /* \"#utility.yul\":507:559   */\n    tag_101:\n      pop\n        /* \"#utility.yul\":578:601   */\n      calldataload\n      swap2\n        /* \"#utility.yul\":427:607   */\n      swap1\n      pop\n      jump\t// out\n        /* \"#utility.yul\":612:739   */\n    tag_64:\n        /* \"#utility.yul\":673:683   */\n      0x4e487b71\n        /* \"#utility.yul\":668:671   */\n      0xe0\n        /* \"#utility.yul\":664:684   */\n      shl\n        /* \"#utility.yul\":661:662   */\n      0x00\n        /* \"#utility.yul\":654:685   */\n      mstore\n        /* \"#utility.yul\":704:708   */\n      0x21\n        /* \"#utility.yul\":701:702   */\n      0x04\n        /* \"#utility.yul\":694:709   */\n      mstore\n        /* \"#utility.yul\":728:732   */\n      0x24\n        /* \"#utility.yul\":725:726   */\n      0x00\n        /* \"#utility.yul\":718:733   */\n      revert\n        /* \"#utility.yul\":744:1689   */\n    tag_26:\n      sub(shl(0xa0, 0x01), 0x01)\n        /* \"#utility.yul\":1071:1086   */\n      dup7\n      dup2\n      and\n        /* \"#utility.yul\":1053:1087   */\n      dup3\n      mstore\n        /* \"#utility.yul\":1123:1138   */\n      dup6\n      and\n        /* \"#utility.yul\":1118:1120   */\n      0x20\n        /* \"#utility.yul\":1103:1121   */\n      dup3\n      add\n        /* \"#utility.yul\":1096:1139   */\n      mstore\n        /* \"#utility.yul\":1170:1172   */\n      0x40\n        /* \"#utility.yul\":1155:1173   */\n      dup2\n      add\n        /* \"#utility.yul\":1148:1182   */\n      dup5\n      swap1\n      mstore\n        /* \"#utility.yul\":973:977   */\n      0x00\n        /* \"#utility.yul\":1212:1213   */\n      0x04\n        /* \"#utility.yul\":1201:1214   */\n      dup5\n      lt\n        /* \"#utility.yul\":1191:1335   */\n      tag_104\n      jumpi\n        /* \"#utility.yul\":1257:1267   */\n      0x4e487b71\n        /* \"#utility.yul\":1252:1255   */\n      0xe0\n        /* \"#utility.yul\":1248:1268   */\n      shl\n        /* \"#utility.yul\":1245:1246   */\n      0x00\n        /* \"#utility.yul\":1238:1269   */\n      mstore\n        /* \"#utility.yul\":1292:1296   */\n      0x21\n        /* \"#utility.yul\":1289:1290   */\n      0x04\n        /* \"#utility.yul\":1282:1297   */\n      mstore\n        /* \"#utility.yul\":1320:1324   */\n      0x24\n        /* \"#utility.yul\":1317:1318   */\n      0x00\n        /* \"#utility.yul\":1310:1325   */\n      revert\n        /* \"#utility.yul\":1191:1335   */\n    tag_104:\n        /* \"#utility.yul\":1371:1377   */\n      dup4\n        /* \"#utility.yul\":1366:1368   */\n      0x60\n        /* \"#utility.yul\":1355:1364   */\n      dup4\n        /* \"#utility.yul\":1351:1369   */\n      add\n        /* \"#utility.yul\":1344:1378   */\n      mstore\n        /* \"#utility.yul\":1415:1418   */\n      0xa0\n        /* \"#utility.yul\":1409:1412   */\n      0x80\n        /* \"#utility.yul\":1398:1407   */\n      dup4\n        /* \"#utility.yul\":1394:1413   */\n      add\n        /* \"#utility.yul\":1387:1419   */\n      mstore\n        /* \"#utility.yul\":1448:1454   */\n      dup3\n        /* \"#utility.yul\":1442:1455   */\n      mload\n        /* \"#utility.yul\":1492:1498   */\n      dup1\n        /* \"#utility.yul\":1486:1489   */\n      0xa0\n        /* \"#utility.yul\":1475:1484   */\n      dup5\n        /* \"#utility.yul\":1471:1490   */\n      add\n        /* \"#utility.yul\":1464:1499   */\n      mstore\n        /* \"#utility.yul\":1552:1558   */\n      dup1\n        /* \"#utility.yul\":1547:1549   */\n      0x20\n        /* \"#utility.yul\":1539:1545   */\n      dup6\n        /* \"#utility.yul\":1535:1550   */\n      add\n        /* \"#utility.yul\":1529:1532   */\n      0xc0\n        /* \"#utility.yul\":1518:1527   */\n      dup6\n        /* \"#utility.yul\":1514:1533   */\n      add\n        /* \"#utility.yul\":1508:1559   */\n      mcopy\n        /* \"#utility.yul\":1609:1610   */\n      0x00\n        /* \"#utility.yul\":1603:1606   */\n      0xc0\n        /* \"#utility.yul\":1594:1600   */\n      dup3\n        /* \"#utility.yul\":1583:1592   */\n      dup6\n        /* \"#utility.yul\":1579:1601   */\n      add\n        /* \"#utility.yul\":1575:1607   */\n      add\n        /* \"#utility.yul\":1568:1611   */\n      mstore\n        /* \"#utility.yul\":1679:1682   */\n      0xc0\n        /* \"#utility.yul\":1672:1674   */\n      0x1f\n        /* \"#utility.yul\":1668:1675   */\n      not\n        /* \"#utility.yul\":1663:1665   */\n      0x1f\n        /* \"#utility.yul\":1655:1661   */\n      dup4\n        /* \"#utility.yul\":1651:1666   */\n      add\n        /* \"#utility.yul\":1647:1676   */\n      and\n        /* \"#utility.yul\":1636:1645   */\n      dup5\n        /* \"#utility.yul\":1632:1677   */\n      add\n        /* \"#utility.yul\":1628:1683   */\n      add\n        /* \"#utility.yul\":1620:1683   */\n      swap2\n      pop\n      pop\n        /* \"#utility.yul\":744:1689   */\n      swap7\n      swap6\n      pop\n      pop\n      pop\n      pop\n      pop\n      pop\n      jump\t// out\n        /* \"#utility.yul\":1694:1821   */\n    tag_93:\n        /* \"#utility.yul\":1755:1765   */\n      0x4e487b71\n        /* \"#utility.yul\":1750:1753   */\n      0xe0\n        /* \"#utility.yul\":1746:1766   */\n      shl\n        /* \"#utility.yul\":1743:1744   */\n      0x00\n        /* \"#utility.yul\":1736:1767   */\n      mstore\n        /* \"#utility.yul\":1786:1790   */\n      0x41\n        /* \"#utility.yul\":1783:1784   */\n      0x04\n        /* \"#utility.yul\":1776:1791   */\n      mstore\n        /* \"#utility.yul\":1810:1814   */\n      0x24\n        /* \"#utility.yul\":1807:1808   */\n      0x00\n        /* \"#utility.yul\":1800:1815   */\n      revert\n        /* \"#utility.yul\":1826:2945   */\n    tag_36:\n        /* \"#utility.yul\":1904:1910   */\n      0x00\n        /* \"#utility.yul\":1912:1918   */\n      dup1\n        /* \"#utility.yul\":1965:1967   */\n      0x40\n        /* \"#utility.yul\":1953:1962   */\n      dup4\n        /* \"#utility.yul\":1944:1951   */\n      dup6\n        /* \"#utility.yul\":1940:1963   */\n      sub\n        /* \"#utility.yul\":1936:1968   */\n      slt\n        /* \"#utility.yul\":1933:1985   */\n      iszero\n      tag_107\n      jumpi\n        /* \"#utility.yul\":1981:1982   */\n      0x00\n        /* \"#utility.yul\":1978:1979   */\n      dup1\n        /* \"#utility.yul\":1971:1983   */\n      revert\n        /* \"#utility.yul\":1933:1985   */\n    tag_107:\n        /* \"#utility.yul\":2020:2029   */\n      dup3\n        /* \"#utility.yul\":2007:2030   */\n      calldataload\n      sub(shl(0xa0, 0x01), 0x01)\n        /* \"#utility.yul\":2063:2068   */\n      dup2\n        /* \"#utility.yul\":2059:2113   */\n      and\n        /* \"#utility.yul\":2052:2057   */\n      dup2\n        /* \"#utility.yul\":2049:2114   */\n      eq\n        /* \"#utility.yul\":2039:2132   */\n      tag_108\n      jumpi\n        /* \"#utility.yul\":2128:2129   */\n      0x00\n        /* \"#utility.yul\":2125:2126   */\n      dup1\n        /* \"#utility.yul\":2118:2130   */\n      revert\n        /* \"#utility.yul\":2039:2132   */\n    tag_108:\n        /* \"#utility.yul\":2151:2156   */\n      swap2\n      pop\n        /* \"#utility.yul\":2207:2209   */\n      0x20\n        /* \"#utility.yul\":2192:2210   */\n      dup4\n      add\n        /* \"#utility.yul\":2179:2211   */\n      calldataload\n        /* \"#utility.yul\":2230:2248   */\n      0xffffffffffffffff\n        /* \"#utility.yul\":2260:2274   */\n      dup1\n      dup3\n      gt\n        /* \"#utility.yul\":2257:2291   */\n      iszero\n      tag_109\n      jumpi\n        /* \"#utility.yul\":2287:2288   */\n      0x00\n        /* \"#utility.yul\":2284:2285   */\n      dup1\n        /* \"#utility.yul\":2277:2289   */\n      revert\n        /* \"#utility.yul\":2257:2291   */\n    tag_109:\n        /* \"#utility.yul\":2325:2331   */\n      dup2\n        /* \"#utility.yul\":2314:2323   */\n      dup6\n        /* \"#utility.yul\":2310:2332   */\n      add\n        /* \"#utility.yul\":2300:2332   */\n      swap2\n      pop\n        /* \"#utility.yul\":2370:2377   */\n      dup6\n        /* \"#utility.yul\":2363:2367   */\n      0x1f\n        /* \"#utility.yul\":2359:2361   */\n      dup4\n        /* \"#utility.yul\":2355:2368   */\n      add\n        /* \"#utility.yul\":2351:2378   */\n      slt\n        /* \"#utility.yul\":2341:2396   */\n      tag_110\n      jumpi\n        /* \"#utility.yul\":2392:2393   */\n      0x00\n        /* \"#utility.yul\":2389:2390   */\n      dup1\n        /* \"#utility.yul\":2382:2394   */\n      revert\n        /* \"#utility.yul\":2341:2396   */\n    tag_110:\n        /* \"#utility.yul\":2428:2430   */\n      dup2\n        /* \"#utility.yul\":2415:2431   */\n      calldataload\n        /* \"#utility.yul\":2450:2452   */\n      dup2\n        /* \"#utility.yul\":2446:2448   */\n      dup2\n        /* \"#utility.yul\":2443:2453   */\n      gt\n        /* \"#utility.yul\":2440:2476   */\n      iszero\n      tag_112\n      jumpi\n        /* \"#utility.yul\":2456:2474   */\n      tag_112\n      tag_93\n      jump\t// in\n    tag_112:\n        /* \"#utility.yul\":2531:2533   */\n      0x40\n        /* \"#utility.yul\":2525:2534   */\n      mload\n        /* \"#utility.yul\":2499:2501   */\n      0x1f\n        /* \"#utility.yul\":2585:2598   */\n      dup3\n      add\n      not(0x1f)\n        /* \"#utility.yul\":2581:2603   */\n      swap1\n      dup2\n      and\n        /* \"#utility.yul\":2605:2607   */\n      0x3f\n        /* \"#utility.yul\":2577:2608   */\n      add\n        /* \"#utility.yul\":2573:2613   */\n      and\n        /* \"#utility.yul\":2561:2614   */\n      dup2\n      add\n      swap1\n        /* \"#utility.yul\":2629:2647   */\n      dup4\n      dup3\n      gt\n        /* \"#utility.yul\":2649:2671   */\n      dup2\n      dup4\n      lt\n        /* \"#utility.yul\":2626:2672   */\n      or\n        /* \"#utility.yul\":2623:2695   */\n      iszero\n      tag_114\n      jumpi\n        /* \"#utility.yul\":2675:2693   */\n      tag_114\n      tag_93\n      jump\t// in\n    tag_114:\n        /* \"#utility.yul\":2715:2725   */\n      dup2\n        /* \"#utility.yul\":2711:2713   */\n      0x40\n        /* \"#utility.yul\":2704:2726   */\n      mstore\n        /* \"#utility.yul\":2750:2752   */\n      dup3\n        /* \"#utility.yul\":2742:2748   */\n      dup2\n        /* \"#utility.yul\":2735:2753   */\n      mstore\n        /* \"#utility.yul\":2790:2797   */\n      dup9\n        /* \"#utility.yul\":2785:2787   */\n      0x20\n        /* \"#utility.yul\":2780:2782   */\n      dup5\n        /* \"#utility.yul\":2776:2778   */\n      dup8\n        /* \"#utility.yul\":2772:2783   */\n      add\n        /* \"#utility.yul\":2768:2788   */\n      add\n        /* \"#utility.yul\":2765:2798   */\n      gt\n        /* \"#utility.yul\":2762:2815   */\n      iszero\n      tag_115\n      jumpi\n        /* \"#utility.yul\":2811:2812   */\n      0x00\n        /* \"#utility.yul\":2808:2809   */\n      dup1\n        /* \"#utility.yul\":2801:2813   */\n      revert\n        /* \"#utility.yul\":2762:2815   */\n    tag_115:\n        /* \"#utility.yul\":2867:2869   */\n      dup3\n        /* \"#utility.yul\":2862:2864   */\n      0x20\n        /* \"#utility.yul\":2858:2860   */\n      dup7\n        /* \"#utility.yul\":2854:2865   */\n      add\n        /* \"#utility.yul\":2849:2851   */\n      0x20\n        /* \"#utility.yul\":2841:2847   */\n      dup4\n        /* \"#utility.yul\":2837:2852   */\n      add\n        /* \"#utility.yul\":2824:2870   */\n      calldatacopy\n        /* \"#utility.yul\":2912:2913   */\n      0x00\n        /* \"#utility.yul\":2907:2909   */\n      0x20\n        /* \"#utility.yul\":2902:2904   */\n      dup5\n        /* \"#utility.yul\":2894:2900   */\n      dup4\n        /* \"#utility.yul\":2890:2905   */\n      add\n        /* \"#utility.yul\":2886:2910   */\n      add\n        /* \"#utility.yul\":2879:2914   */\n      mstore\n        /* \"#utility.yul\":2933:2939   */\n      dup1\n        /* \"#utility.yul\":2923:2939   */\n      swap6\n      pop\n      pop\n      pop\n      pop\n      pop\n      pop\n        /* \"#utility.yul\":1826:2945   */\n      swap3\n      pop\n      swap3\n      swap1\n      pop\n      jump\t// out\n        /* \"#utility.yul\":2950:3330   */\n    tag_44:\n        /* \"#utility.yul\":3029:3030   */\n      0x01\n        /* \"#utility.yul\":3025:3037   */\n      dup2\n      dup2\n      shr\n      swap1\n        /* \"#utility.yul\":3072:3084   */\n      dup3\n      and\n      dup1\n        /* \"#utility.yul\":3093:3154   */\n      tag_117\n      jumpi\n        /* \"#utility.yul\":3147:3151   */\n      0x7f\n        /* \"#utility.yul\":3139:3145   */\n      dup3\n        /* \"#utility.yul\":3135:3152   */\n      and\n        /* \"#utility.yul\":3125:3152   */\n      swap2\n      pop\n        /* \"#utility.yul\":3093:3154   */\n    tag_117:\n        /* \"#utility.yul\":3200:3202   */\n      0x20\n        /* \"#utility.yul\":3192:3198   */\n      dup3\n        /* \"#utility.yul\":3189:3203   */\n      lt\n        /* \"#utility.yul\":3169:3187   */\n      dup2\n        /* \"#utility.yul\":3166:3204   */\n      sub\n        /* \"#utility.yul\":3163:3324   */\n      tag_118\n      jumpi\n        /* \"#utility.yul\":3246:3256   */\n      0x4e487b71\n        /* \"#utility.yul\":3241:3244   */\n      0xe0\n        /* \"#utility.yul\":3237:3257   */\n      shl\n        /* \"#utility.yul\":3234:3235   */\n      0x00\n        /* \"#utility.yul\":3227:3258   */\n      mstore\n        /* \"#utility.yul\":3281:3285   */\n      0x22\n        /* \"#utility.yul\":3278:3279   */\n      0x04\n        /* \"#utility.yul\":3271:3286   */\n      mstore\n        /* \"#utility.yul\":3309:3313   */\n      0x24\n        /* \"#utility.yul\":3306:3307   */\n      0x00\n        /* \"#utility.yul\":3299:3314   */\n      revert\n        /* \"#utility.yul\":3163:3324   */\n    tag_118:\n      pop\n        /* \"#utility.yul\":2950:3330   */\n      swap2\n      swap1\n      pop\n      jump\t// out\n        /* \"#utility.yul\":4021:4253   */\n    tag_61:\n        /* \"#utility.yul\":4060:4063   */\n      0x00\n        /* \"#utility.yul\":4081:4098   */\n      0x01\n      dup3\n      add\n        /* \"#utility.yul\":4078:4218   */\n      tag_122\n      jumpi\n        /* \"#utility.yul\":4140:4150   */\n      0x4e487b71\n        /* \"#utility.yul\":4135:4138   */\n      0xe0\n        /* \"#utility.yul\":4131:4151   */\n      shl\n        /* \"#utility.yul\":4128:4129   */\n      0x00\n        /* \"#utility.yul\":4121:4152   */\n      mstore\n        /* \"#utility.yul\":4175:4179   */\n      0x11\n        /* \"#utility.yul\":4172:4173   */\n      0x04\n        /* \"#utility.yul\":4165:4180   */\n      mstore\n        /* \"#utility.yul\":4203:4207   */\n      0x24\n        /* \"#utility.yul\":4200:4201   */\n      0x00\n        /* \"#utility.yul\":4193:4208   */\n      revert\n        /* \"#utility.yul\":4078:4218   */\n    tag_122:\n      pop\n        /* \"#utility.yul\":4245:4246   */\n      0x01\n        /* \"#utility.yul\":4234:4247   */\n      add\n      swap1\n        /* \"#utility.yul\":4021:4253   */\n      jump\t// out\n        /* \"#utility.yul\":4384:4902   */\n    tag_95:\n        /* \"#utility.yul\":4486:4488   */\n      0x1f\n        /* \"#utility.yul\":4481:4484   */\n      dup3\n        /* \"#utility.yul\":4478:4489   */\n      gt\n        /* \"#utility.yul\":4475:4896   */\n      iszero\n      tag_125\n      jumpi\n        /* \"#utility.yul\":4522:4527   */\n      dup1\n        /* \"#utility.yul\":4519:4520   */\n      0x00\n        /* \"#utility.yul\":4512:4528   */\n      mstore\n        /* \"#utility.yul\":4566:4570   */\n      0x20\n        /* \"#utility.yul\":4563:4564   */\n      0x00\n        /* \"#utility.yul\":4553:4571   */\n      keccak256\n        /* \"#utility.yul\":4636:4638   */\n      0x1f\n        /* \"#utility.yul\":4624:4634   */\n      dup5\n        /* \"#utility.yul\":4620:4639   */\n      add\n        /* \"#utility.yul\":4617:4618   */\n      0x05\n        /* \"#utility.yul\":4613:4640   */\n      shr\n        /* \"#utility.yul\":4607:4611   */\n      dup2\n        /* \"#utility.yul\":4603:4641   */\n      add\n        /* \"#utility.yul\":4672:4676   */\n      0x20\n        /* \"#utility.yul\":4660:4670   */\n      dup6\n        /* \"#utility.yul\":4657:4677   */\n      lt\n        /* \"#utility.yul\":4654:4701   */\n      iszero\n      tag_126\n      jumpi\n      pop\n        /* \"#utility.yul\":4695:4699   */\n      dup1\n        /* \"#utility.yul\":4654:4701   */\n    tag_126:\n        /* \"#utility.yul\":4750:4752   */\n      0x1f\n        /* \"#utility.yul\":4745:4748   */\n      dup5\n        /* \"#utility.yul\":4741:4753   */\n      add\n        /* \"#utility.yul\":4738:4739   */\n      0x05\n        /* \"#utility.yul\":4734:4754   */\n      shr\n        /* \"#utility.yul\":4728:4732   */\n      dup3\n        /* \"#utility.yul\":4724:4755   */\n      add\n        /* \"#utility.yul\":4714:4755   */\n      swap2\n      pop\n        /* \"#utility.yul\":4805:4886   */\n    tag_127:\n        /* \"#utility.yul\":4823:4825   */\n      dup2\n        /* \"#utility.yul\":4816:4821   */\n      dup2\n        /* \"#utility.yul\":4813:4826   */\n      lt\n        /* \"#utility.yul\":4805:4886   */\n      iszero\n      tag_129\n      jumpi\n        /* \"#utility.yul\":4882:4883   */\n      0x00\n        /* \"#utility.yul\":4868:4884   */\n      dup2\n      sstore\n        /* \"#utility.yul\":4849:4850   */\n      0x01\n        /* \"#utility.yul\":4838:4851   */\n      add\n        /* \"#utility.yul\":4805:4886   */\n      jump(tag_127)\n    tag_129:\n        /* \"#utility.yul\":4809:4812   */\n      pop\n      pop\n        /* \"#utility.yul\":4475:4896   */\n    tag_125:\n        /* \"#utility.yul\":4384:4902   */\n      pop\n      pop\n      pop\n      jump\t// out\n        /* \"#utility.yul\":5078:6423   */\n    tag_68:\n        /* \"#utility.yul\":5204:5207   */\n      dup2\n        /* \"#utility.yul\":5198:5208   */\n      mload\n        /* \"#utility.yul\":5231:5249   */\n      0xffffffffffffffff\n        /* \"#utility.yul\":5223:5229   */\n      dup2\n        /* \"#utility.yul\":5220:5250   */\n      gt\n        /* \"#utility.yul\":5217:5273   */\n      iszero\n      tag_133\n      jumpi\n        /* \"#utility.yul\":5253:5271   */\n      tag_133\n      tag_93\n      jump\t// in\n    tag_133:\n        /* \"#utility.yul\":5282:5379   */\n      tag_134\n        /* \"#utility.yul\":5372:5378   */\n      dup2\n        /* \"#utility.yul\":5332:5370   */\n      tag_135\n        /* \"#utility.yul\":5364:5368   */\n      dup5\n        /* \"#utility.yul\":5358:5369   */\n      sload\n        /* \"#utility.yul\":5332:5370   */\n      tag_44\n      jump\t// in\n    tag_135:\n        /* \"#utility.yul\":5326:5330   */\n      dup5\n        /* \"#utility.yul\":5282:5379   */\n      tag_95\n      jump\t// in\n    tag_134:\n        /* \"#utility.yul\":5434:5438   */\n      0x20\n      dup1\n        /* \"#utility.yul\":5491:5493   */\n      0x1f\n        /* \"#utility.yul\":5480:5494   */\n      dup4\n      gt\n        /* \"#utility.yul\":5508:5509   */\n      0x01\n        /* \"#utility.yul\":5503:6166   */\n      dup2\n      eq\n      tag_137\n      jumpi\n        /* \"#utility.yul\":6210:6211   */\n      0x00\n        /* \"#utility.yul\":6227:6233   */\n      dup5\n        /* \"#utility.yul\":6224:6313   */\n      iszero\n      tag_138\n      jumpi\n      pop\n        /* \"#utility.yul\":6279:6298   */\n      dup6\n      dup4\n      add\n        /* \"#utility.yul\":6273:6299   */\n      mload\n        /* \"#utility.yul\":6224:6313   */\n    tag_138:\n      not(0x00)\n        /* \"#utility.yul\":5035:5036   */\n      0x03\n        /* \"#utility.yul\":5031:5042   */\n      dup7\n      swap1\n      shl\n        /* \"#utility.yul\":5027:5051   */\n      shr\n        /* \"#utility.yul\":5023:5052   */\n      not\n        /* \"#utility.yul\":5013:5053   */\n      and\n        /* \"#utility.yul\":5059:5060   */\n      0x01\n        /* \"#utility.yul\":5055:5066   */\n      dup6\n      swap1\n      shl\n        /* \"#utility.yul\":5010:5067   */\n      or\n        /* \"#utility.yul\":6326:6407   */\n      dup6\n      sstore\n        /* \"#utility.yul\":5473:6417   */\n      jump(tag_136)\n        /* \"#utility.yul\":5503:6166   */\n    tag_137:\n        /* \"#utility.yul\":4331:4332   */\n      0x00\n        /* \"#utility.yul\":4324:4338   */\n      dup6\n      dup2\n      mstore\n        /* \"#utility.yul\":4368:4372   */\n      0x20\n        /* \"#utility.yul\":4355:4373   */\n      dup2\n      keccak256\n      not(0x1f)\n        /* \"#utility.yul\":5539:5559   */\n      dup7\n      and\n      swap2\n        /* \"#utility.yul\":5657:5893   */\n    tag_141:\n        /* \"#utility.yul\":5671:5678   */\n      dup3\n        /* \"#utility.yul\":5668:5669   */\n      dup2\n        /* \"#utility.yul\":5665:5679   */\n      lt\n        /* \"#utility.yul\":5657:5893   */\n      iszero\n      tag_143\n      jumpi\n        /* \"#utility.yul\":5760:5779   */\n      dup9\n      dup7\n      add\n        /* \"#utility.yul\":5754:5780   */\n      mload\n        /* \"#utility.yul\":5739:5781   */\n      dup3\n      sstore\n        /* \"#utility.yul\":5852:5879   */\n      swap5\n      dup5\n      add\n      swap5\n        /* \"#utility.yul\":5820:5821   */\n      0x01\n        /* \"#utility.yul\":5808:5822   */\n      swap1\n      swap2\n      add\n      swap1\n        /* \"#utility.yul\":5687:5706   */\n      dup5\n      add\n        /* \"#utility.yul\":5657:5893   */\n      jump(tag_141)\n    tag_143:\n        /* \"#utility.yul\":5661:5664   */\n      pop\n        /* \"#utility.yul\":5921:5927   */\n      dup6\n        /* \"#utility.yul\":5912:5919   */\n      dup3\n        /* \"#utility.yul\":5909:5928   */\n      lt\n        /* \"#utility.yul\":5906:6107   */\n      iszero\n      tag_144\n      jumpi\n        /* \"#utility.yul\":5982:6001   */\n      dup8\n      dup6\n      add\n        /* \"#utility.yul\":5976:6002   */\n      mload\n      not(0x00)\n        /* \"#utility.yul\":6065:6066   */\n      0x03\n        /* \"#utility.yul\":6061:6075   */\n      dup9\n      swap1\n      shl\n        /* \"#utility.yul\":6077:6080   */\n      0xf8\n        /* \"#utility.yul\":6057:6081   */\n      and\n        /* \"#utility.yul\":6053:6090   */\n      shr\n        /* \"#utility.yul\":6049:6091   */\n      not\n        /* \"#utility.yul\":6034:6092   */\n      and\n        /* \"#utility.yul\":6019:6093   */\n      dup2\n      sstore\n        /* \"#utility.yul\":5906:6107   */\n    tag_144:\n      pop\n      pop\n        /* \"#utility.yul\":6153:6154   */\n      0x01\n        /* \"#utility.yul\":6144:6150   */\n      dup5\n        /* \"#utility.yul\":6141:6142   */\n      0x01\n        /* \"#utility.yul\":6137:6151   */\n      shl\n        /* \"#utility.yul\":6133:6155   */\n      add\n        /* \"#utility.yul\":6127:6131   */\n      dup6\n        /* \"#utility.yul\":6120:6156   */\n      sstore\n        /* \"#utility.yul\":5473:6417   */\n    tag_136:\n      pop\n      pop\n      pop\n      pop\n        /* \"#utility.yul\":5078:6423   */\n      pop\n      pop\n      jump\t// out\n\n    auxdata: 0xa2646970667358221220432b33962a5ad3dd919876a2b82f9dd033e9bd0ad0622c647332dc7091ce5fc364736f6c63430008190033\n}\n",
    "bytecode": {
      "linkReferences": {},
      "object": "6080604052348015600e575f80fd5b505f80546001600160a01b031916331790556109338061002d5f395ff3fe60806040526004361061006e575f3560e01c8063b77bf6001161004c578063b77bf600146100f9578063db2e21bc1461010e578063eb2fadf014610124578063fd84cb9714610137575f80fd5b806312065fe0146100725780638da5cb5b146100935780639ace38c2146100c9575b5f80fd5b34801561007d575f80fd5b50475b6040519081526020015b60405180910390f35b34801561009e575f80fd5b505f546100b1906001600160a01b031681565b6040516001600160a01b03909116815260200161008a565b3480156100d4575f80fd5b506100e86100e3366004610614565b610156565b60405161008a95949392919061063f565b348015610104575f80fd5b5061008060025481565b348015610119575f80fd5b5061012261021f565b005b6101226101323660046106cc565b6102b7565b348015610142575f80fd5b50610122610151366004610614565b61044b565b600160208190525f9182526040909120805491810154600282015460038301546004840180546001600160a01b039687169690941694929360ff909216929161019e90610795565b80601f01602080910402602001604051908101604052809291908181526020018280546101ca90610795565b80156102155780601f106101ec57610100808354040283529160200191610215565b820191905f5260205f20905b8154815290600101906020018083116101f857829003601f168201915b5050505050905085565b5f546001600160a01b0316331461027d5760405162461bcd60e51b815260206004820152600b60248201527f42756b616e206f776e657200000000000000000000000000000000000000000060448201526064015b60405180910390fd5b5f80546040516001600160a01b03909116914780156108fc02929091818181858888f193505050501580156102b4573d5f803e3d5ffd5b50565b5f34116103065760405162461bcd60e51b815260206004820152601160248201527f447569746e79612062656c756d206164610000000000000000000000000000006044820152606401610274565b60028054905f610315836107cd565b90915550506040805160a0810182526001600160a01b0384168152336020820152349181019190915260608101600181526020908101839052600280545f9081526001808452604091829020855181547fffffffffffffffffffffffff00000000000000000000000000000000000000009081166001600160a01b0392831617835595870151828401805490971691161790945590840151918301919091556060830151600380840180549293909260ff19169184908111156103da576103da61062b565b0217905550608082015160048201906103f3908261083d565b5050600254604080519182526001600160a01b038516602083015233908201523460608201527fe9097a4f4eddc0e5906640fcd9e1193c9db52771536ca4c8b06ab4c40aa045d2915060800160405180910390a15050565b5f818152600160208190526040909120908101546001600160a01b031633146104c05760405162461bcd60e51b815260206004820152602160248201527f43756d612070656d62656c692079616e672062697361206b6f6e6669726d61736044820152606960f81b6064820152608401610274565b600160038083015460ff16908111156104db576104db61062b565b146105285760405162461bcd60e51b815260206004820152601660248201527f537461747573207472616e73616b73692073616c6168000000000000000000006044820152606401610274565b60038101805460ff191660029081179091558154908201546040515f926001600160a01b031691908381818185875af1925050503d805f8114610586576040519150601f19603f3d011682016040523d82523d5f602084013e61058b565b606091505b50509050806105dc5760405162461bcd60e51b815260206004820152601060248201527f476167616c206b6972696d2064616e61000000000000000000000000000000006044820152606401610274565b6040518381527f01e74d1f4f418e68629246efc4a29d98199e9c9b9c3653bdbfee74d2ad4ac6a39060200160405180910390a1505050565b5f60208284031215610624575f80fd5b5035919050565b634e487b7160e01b5f52602160045260245ffd5b6001600160a01b03868116825285166020820152604081018490525f6004841061067757634e487b7160e01b5f52602160045260245ffd5b83606083015260a0608083015282518060a0840152806020850160c085015e5f60c0828501015260c0601f19601f8301168401019150509695505050505050565b634e487b7160e01b5f52604160045260245ffd5b5f80604083850312156106dd575f80fd5b82356001600160a01b03811681146106f3575f80fd5b9150602083013567ffffffffffffffff8082111561070f575f80fd5b818501915085601f830112610722575f80fd5b813581811115610734576107346106b8565b604051601f8201601f19908116603f0116810190838211818310171561075c5761075c6106b8565b81604052828152886020848701011115610774575f80fd5b826020860160208301375f6020848301015280955050505050509250929050565b600181811c908216806107a957607f821691505b6020821081036107c757634e487b7160e01b5f52602260045260245ffd5b50919050565b5f600182016107ea57634e487b7160e01b5f52601160045260245ffd5b5060010190565b601f82111561083857805f5260205f20601f840160051c810160208510156108165750805b601f840160051c820191505b81811015610835575f8155600101610822565b50505b505050565b815167ffffffffffffffff811115610857576108576106b8565b61086b816108658454610795565b846107f1565b602080601f83116001811461089e575f84156108875750858301515b5f19600386901b1c1916600185901b1785556108f5565b5f85815260208120601f198616915b828110156108cc578886015182559484019460019091019084016108ad565b50858210156108e957878501515f19600388901b60f8161c191681555b505060018460011b0185555b50505050505056fea2646970667358221220432b33962a5ad3dd919876a2b82f9dd033e9bd0ad0622c647332dc7091ce5fc364736f6c63430008190033",
      "opcodes": "PUSH1 0x80 PUSH1 0x40 MSTORE CALLVALUE DUP1 ISZERO PUSH1 0xE JUMPI PUSH0 DUP1 REVERT JUMPDEST POP PUSH0 DUP1 SLOAD PUSH1 0x1 PUSH1 0x1 PUSH1 0xA0 SHL SUB NOT AND CALLER OR SWAP1 SSTORE PUSH2 0x933 DUP1 PUSH2 0x2D PUSH0 CODECOPY PUSH0 RETURN INVALID PUSH1 0x80 PUSH1 0x40 MSTORE PUSH1 0x4 CALLDATASIZE LT PUSH2 0x6E JUMPI PUSH0 CALLDATALOAD PUSH1 0xE0 SHR DUP1 PUSH4 0xB77BF600 GT PUSH2 0x4C JUMPI DUP1 PUSH4 0xB77BF600 EQ PUSH2 0xF9 JUMPI DUP1 PUSH4 0xDB2E21BC EQ PUSH2 0x10E JUMPI DUP1 PUSH4 0xEB2FADF0 EQ PUSH2 0x124 JUMPI DUP1 PUSH4 0xFD84CB97 EQ PUSH2 0x137 JUMPI PUSH0 DUP1 REVERT JUMPDEST DUP1 PUSH4 0x12065FE0 EQ PUSH2 0x72 JUMPI DUP1 PUSH4 0x8DA5CB5B EQ PUSH2 0x93 JUMPI DUP1 PUSH4 0x9ACE38C2 EQ PUSH2 0xC9 JUMPI JUMPDEST PUSH0 DUP1 REVERT JUMPDEST CALLVALUE DUP1 ISZERO PUSH2 0x7D JUMPI PUSH0 DUP1 REVERT JUMPDEST POP SELFBALANCE JUMPDEST PUSH1 0x40 MLOAD SWAP1 DUP2 MSTORE PUSH1 0x20 ADD JUMPDEST PUSH1 0x40 MLOAD DUP1 SWAP2 SUB SWAP1 RETURN JUMPDEST CALLVALUE DUP1 ISZERO PUSH2 0x9E JUMPI PUSH0 DUP1 REVERT JUMPDEST POP PUSH0 SLOAD PUSH2 0xB1 SWAP1 PUSH1 0x1 PUSH1 0x1 PUSH1 0xA0 SHL SUB AND DUP2 JUMP JUMPDEST PUSH1 0x40 MLOAD PUSH1 0x1 PUSH1 0x1 PUSH1 0xA0 SHL SUB SWAP1 SWAP2 AND DUP2 MSTORE PUSH1 0x20 ADD PUSH2 0x8A JUMP JUMPDEST CALLVALUE DUP1 ISZERO PUSH2 0xD4 JUMPI PUSH0 DUP1 REVERT JUMPDEST POP PUSH2 0xE8 PUSH2 0xE3 CALLDATASIZE PUSH1 0x4 PUSH2 0x614 JUMP JUMPDEST PUSH2 0x156 JUMP JUMPDEST PUSH1 0x40 MLOAD PUSH2 0x8A SWAP6 SWAP5 SWAP4 SWAP3 SWAP2 SWAP1 PUSH2 0x63F JUMP JUMPDEST CALLVALUE DUP1 ISZERO PUSH2 0x104 JUMPI PUSH0 DUP1 REVERT JUMPDEST POP PUSH2 0x80 PUSH1 0x2 SLOAD DUP2 JUMP JUMPDEST CALLVALUE DUP1 ISZERO PUSH2 0x119 JUMPI PUSH0 DUP1 REVERT JUMPDEST POP PUSH2 0x122 PUSH2 0x21F JUMP JUMPDEST STOP JUMPDEST PUSH2 0x122 PUSH2 0x132 CALLDATASIZE PUSH1 0x4 PUSH2 0x6CC JUMP JUMPDEST PUSH2 0x2B7 JUMP JUMPDEST CALLVALUE DUP1 ISZERO PUSH2 0x142 JUMPI PUSH0 DUP1 REVERT JUMPDEST POP PUSH2 0x122 PUSH2 0x151 CALLDATASIZE PUSH1 0x4 PUSH2 0x614 JUMP JUMPDEST PUSH2 0x44B JUMP JUMPDEST PUSH1 0x1 PUSH1 0x20 DUP2 SWAP1 MSTORE PUSH0 SWAP2 DUP3 MSTORE PUSH1 0x40 SWAP1 SWAP2 KECCAK256 DUP1 SLOAD SWAP2 DUP2 ADD SLOAD PUSH1 0x2 DUP3 ADD SLOAD PUSH1 0x3 DUP4 ADD SLOAD PUSH1 0x4 DUP5 ADD DUP1 SLOAD PUSH1 0x1 PUSH1 0x1 PUSH1 0xA0 SHL SUB SWAP7 DUP8 AND SWAP7 SWAP1 SWAP5 AND SWAP5 SWAP3 SWAP4 PUSH1 0xFF SWAP1 SWAP3 AND SWAP3 SWAP2 PUSH2 0x19E SWAP1 PUSH2 0x795 JUMP JUMPDEST DUP1 PUSH1 0x1F ADD PUSH1 0x20 DUP1 SWAP2 DIV MUL PUSH1 0x20 ADD PUSH1 0x40 MLOAD SWAP1 DUP2 ADD PUSH1 0x40 MSTORE DUP1 SWAP3 SWAP2 SWAP1 DUP2 DUP2 MSTORE PUSH1 0x20 ADD DUP3 DUP1 SLOAD PUSH2 0x1CA SWAP1 PUSH2 0x795 JUMP JUMPDEST DUP1 ISZERO PUSH2 0x215 JUMPI DUP1 PUSH1 0x1F LT PUSH2 0x1EC JUMPI PUSH2 0x100 DUP1 DUP4 SLOAD DIV MUL DUP4 MSTORE SWAP2 PUSH1 0x20 ADD SWAP2 PUSH2 0x215 JUMP JUMPDEST DUP3 ADD SWAP2 SWAP1 PUSH0 MSTORE PUSH1 0x20 PUSH0 KECCAK256 SWAP1 JUMPDEST DUP2 SLOAD DUP2 MSTORE SWAP1 PUSH1 0x1 ADD SWAP1 PUSH1 0x20 ADD DUP1 DUP4 GT PUSH2 0x1F8 JUMPI DUP3 SWAP1 SUB PUSH1 0x1F AND DUP3 ADD SWAP2 JUMPDEST POP POP POP POP POP SWAP1 POP DUP6 JUMP JUMPDEST PUSH0 SLOAD PUSH1 0x1 PUSH1 0x1 PUSH1 0xA0 SHL SUB AND CALLER EQ PUSH2 0x27D JUMPI PUSH1 0x40 MLOAD PUSH3 0x461BCD PUSH1 0xE5 SHL DUP2 MSTORE PUSH1 0x20 PUSH1 0x4 DUP3 ADD MSTORE PUSH1 0xB PUSH1 0x24 DUP3 ADD MSTORE PUSH32 0x42756B616E206F776E6572000000000000000000000000000000000000000000 PUSH1 0x44 DUP3 ADD MSTORE PUSH1 0x64 ADD JUMPDEST PUSH1 0x40 MLOAD DUP1 SWAP2 SUB SWAP1 REVERT JUMPDEST PUSH0 DUP1 SLOAD PUSH1 0x40 MLOAD PUSH1 0x1 PUSH1 0x1 PUSH1 0xA0 SHL SUB SWAP1 SWAP2 AND SWAP2 SELFBALANCE DUP1 ISZERO PUSH2 0x8FC MUL SWAP3 SWAP1 SWAP2 DUP2 DUP2 DUP2 DUP6 DUP9 DUP9 CALL SWAP4 POP POP POP POP ISZERO DUP1 ISZERO PUSH2 0x2B4 JUMPI RETURNDATASIZE PUSH0 DUP1 RETURNDATACOPY RETURNDATASIZE PUSH0 REVERT JUMPDEST POP JUMP JUMPDEST PUSH0 CALLVALUE GT PUSH2 0x306 JUMPI PUSH1 0x40 MLOAD PUSH3 0x461BCD PUSH1 0xE5 SHL DUP2 MSTORE PUSH1 0x20 PUSH1 0x4 DUP3 ADD MSTORE PUSH1 0x11 PUSH1 0x24 DUP3 ADD MSTORE PUSH32 0x447569746E79612062656C756D20616461000000000000000000000000000000 PUSH1 0x44 DUP3 ADD MSTORE PUSH1 0x64 ADD PUSH2 0x274 JUMP JUMPDEST PUSH1 0x2 DUP1 SLOAD SWAP1 PUSH0 PUSH2 0x315 DUP4 PUSH2 0x7CD JUMP JUMPDEST SWAP1 SWAP2 SSTORE POP POP PUSH1 0x40 DUP1 MLOAD PUSH1 0xA0 DUP2 ADD DUP3 MSTORE PUSH1 0x1 PUSH1 0x1 PUSH1 0xA0 SHL SUB DUP5 AND DUP2 MSTORE CALLER PUSH1 0x20 DUP3 ADD MSTORE CALLVALUE SWAP2 DUP2 ADD SWAP2 SWAP1 SWAP2 MSTORE PUSH1 0x60 DUP2 ADD PUSH1 0x1 DUP2 MSTORE PUSH1 0x20 SWAP1 DUP2 ADD DUP4 SWAP1 MSTORE PUSH1 0x2 DUP1 SLOAD PUSH0 SWAP1 DUP2 MSTORE PUSH1 0x1 DUP1 DUP5 MSTORE PUSH1 0x40 SWAP2 DUP3 SWAP1 KECCAK256 DUP6 MLOAD DUP2 SLOAD PUSH32 0xFFFFFFFFFFFFFFFFFFFFFFFF0000000000000000000000000000000000000000 SWAP1 DUP2 AND PUSH1 0x1 PUSH1 0x1 PUSH1 0xA0 SHL SUB SWAP3 DUP4 AND OR DUP4 SSTORE SWAP6 DUP8 ADD MLOAD DUP3 DUP5 ADD DUP1 SLOAD SWAP1 SWAP8 AND SWAP2 AND OR SWAP1 SWAP5 SSTORE SWAP1 DUP5 ADD MLOAD SWAP2 DUP4 ADD SWAP2 SWAP1 SWAP2 SSTORE PUSH1 0x60 DUP4 ADD MLOAD PUSH1 0x3 DUP1 DUP5 ADD DUP1 SLOAD SWAP3 SWAP4 SWAP1 SWAP3 PUSH1 0xFF NOT AND SWAP2 DUP5 SWAP1 DUP2 GT ISZERO PUSH2 0x3DA JUMPI PUSH2 0x3DA PUSH2 0x62B JUMP JUMPDEST MUL OR SWAP1 SSTORE POP PUSH1 0x80 DUP3 ADD MLOAD PUSH1 0x4 DUP3 ADD SWAP1 PUSH2 0x3F3 SWAP1 DUP3 PUSH2 0x83D JUMP JUMPDEST POP POP PUSH1 0x2 SLOAD PUSH1 0x40 DUP1 MLOAD SWAP2 DUP3 MSTORE PUSH1 0x1 PUSH1 0x1 PUSH1 0xA0 SHL SUB DUP6 AND PUSH1 0x20 DUP4 ADD MSTORE CALLER SWAP1 DUP3 ADD MSTORE CALLVALUE PUSH1 0x60 DUP3 ADD MSTORE PUSH32 0xE9097A4F4EDDC0E5906640FCD9E1193C9DB52771536CA4C8B06AB4C40AA045D2 SWAP2 POP PUSH1 0x80 ADD PUSH1 0x40 MLOAD DUP1 SWAP2 SUB SWAP1 LOG1 POP POP JUMP JUMPDEST PUSH0 DUP2 DUP2 MSTORE PUSH1 0x1 PUSH1 0x20 DUP2 SWAP1 MSTORE PUSH1 0x40 SWAP1 SWAP2 KECCAK256 SWAP1 DUP2 ADD SLOAD PUSH1 0x1 PUSH1 0x1 PUSH1 0xA0 SHL SUB AND CALLER EQ PUSH2 0x4C0 JUMPI PUSH1 0x40 MLOAD PUSH3 0x461BCD PUSH1 0xE5 SHL DUP2 MSTORE PUSH1 0x20 PUSH1 0x4 DUP3 ADD MSTORE PUSH1 0x21 PUSH1 0x24 DUP3 ADD MSTORE PUSH32 0x43756D612070656D62656C692079616E672062697361206B6F6E6669726D6173 PUSH1 0x44 DUP3 ADD MSTORE PUSH1 0x69 PUSH1 0xF8 SHL PUSH1 0x64 DUP3 ADD MSTORE PUSH1 0x84 ADD PUSH2 0x274 JUMP JUMPDEST PUSH1 0x1 PUSH1 0x3 DUP1 DUP4 ADD SLOAD PUSH1 0xFF AND SWAP1 DUP2 GT ISZERO PUSH2 0x4DB JUMPI PUSH2 0x4DB PUSH2 0x62B JUMP JUMPDEST EQ PUSH2 0x528 JUMPI PUSH1 0x40 MLOAD PUSH3 0x461BCD PUSH1 0xE5 SHL DUP2 MSTORE PUSH1 0x20 PUSH1 0x4 DUP3 ADD MSTORE PUSH1 0x16 PUSH1 0x24 DUP3 ADD MSTORE PUSH32 0x537461747573207472616E73616B73692073616C616800000000000000000000 PUSH1 0x44 DUP3 ADD MSTORE PUSH1 0x64 ADD PUSH2 0x274 JUMP JUMPDEST PUSH1 0x3 DUP2 ADD DUP1 SLOAD PUSH1 0xFF NOT AND PUSH1 0x2 SWAP1 DUP2 OR SWAP1 SWAP2 SSTORE DUP2 SLOAD SWAP1 DUP3 ADD SLOAD PUSH1 0x40 MLOAD PUSH0 SWAP3 PUSH1 0x1 PUSH1 0x1 PUSH1 0xA0 SHL SUB AND SWAP2 SWAP1 DUP4 DUP2 DUP2 DUP2 DUP6 DUP8 GAS CALL SWAP3 POP POP POP RETURNDATASIZE DUP1 PUSH0 DUP2 EQ PUSH2 0x586 JUMPI PUSH1 0x40 MLOAD SWAP2 POP PUSH1 0x1F NOT PUSH1 0x3F RETURNDATASIZE ADD AND DUP3 ADD PUSH1 0x40 MSTORE RETURNDATASIZE DUP3 MSTORE RETURNDATASIZE PUSH0 PUSH1 0x20 DUP5 ADD RETURNDATACOPY PUSH2 0x58B JUMP JUMPDEST PUSH1 0x60 SWAP2 POP JUMPDEST POP POP SWAP1 POP DUP1 PUSH2 0x5DC JUMPI PUSH1 0x40 MLOAD PUSH3 0x461BCD PUSH1 0xE5 SHL DUP2 MSTORE PUSH1 0x20 PUSH1 0x4 DUP3 ADD MSTORE PUSH1 0x10 PUSH1 0x24 DUP3 ADD MSTORE PUSH32 0x476167616C206B6972696D2064616E6100000000000000000000000000000000 PUSH1 0x44 DUP3 ADD MSTORE PUSH1 0x64 ADD PUSH2 0x274 JUMP JUMPDEST PUSH1 0x40 MLOAD DUP4 DUP2 MSTORE PUSH32 0x1E74D1F4F418E68629246EFC4A29D98199E9C9B9C3653BDBFEE74D2AD4AC6A3 SWAP1 PUSH1 0x20 ADD PUSH1 0x40 MLOAD DUP1 SWAP2 SUB SWAP1 LOG1 POP POP POP JUMP JUMPDEST PUSH0 PUSH1 0x20 DUP3 DUP5 SUB SLT ISZERO PUSH2 0x624 JUMPI PUSH0 DUP1 REVERT JUMPDEST POP CALLDATALOAD SWAP2 SWAP1 POP JUMP JUMPDEST PUSH4 0x4E487B71 PUSH1 0xE0 SHL PUSH0 MSTORE PUSH1 0x21 PUSH1 0x4 MSTORE PUSH1 0x24 PUSH0 REVERT JUMPDEST PUSH1 0x1 PUSH1 0x1 PUSH1 0xA0 SHL SUB DUP7 DUP2 AND DUP3 MSTORE DUP6 AND PUSH1 0x20 DUP3 ADD MSTORE PUSH1 0x40 DUP2 ADD DUP5 SWAP1 MSTORE PUSH0 PUSH1 0x4 DUP5 LT PUSH2 0x677 JUMPI PUSH4 0x4E487B71 PUSH1 0xE0 SHL PUSH0 MSTORE PUSH1 0x21 PUSH1 0x4 MSTORE PUSH1 0x24 PUSH0 REVERT JUMPDEST DUP4 PUSH1 0x60 DUP4 ADD MSTORE PUSH1 0xA0 PUSH1 0x80 DUP4 ADD MSTORE DUP3 MLOAD DUP1 PUSH1 0xA0 DUP5 ADD MSTORE DUP1 PUSH1 0x20 DUP6 ADD PUSH1 0xC0 DUP6 ADD MCOPY PUSH0 PUSH1 0xC0 DUP3 DUP6 ADD ADD MSTORE PUSH1 0xC0 PUSH1 0x1F NOT PUSH1 0x1F DUP4 ADD AND DUP5 ADD ADD SWAP2 POP POP SWAP7 SWAP6 POP POP POP POP POP POP JUMP JUMPDEST PUSH4 0x4E487B71 PUSH1 0xE0 SHL PUSH0 MSTORE PUSH1 0x41 PUSH1 0x4 MSTORE PUSH1 0x24 PUSH0 REVERT JUMPDEST PUSH0 DUP1 PUSH1 0x40 DUP4 DUP6 SUB SLT ISZERO PUSH2 0x6DD JUMPI PUSH0 DUP1 REVERT JUMPDEST DUP3 CALLDATALOAD PUSH1 0x1 PUSH1 0x1 PUSH1 0xA0 SHL SUB DUP2 AND DUP2 EQ PUSH2 0x6F3 JUMPI PUSH0 DUP1 REVERT JUMPDEST SWAP2 POP PUSH1 0x20 DUP4 ADD CALLDATALOAD PUSH8 0xFFFFFFFFFFFFFFFF DUP1 DUP3 GT ISZERO PUSH2 0x70F JUMPI PUSH0 DUP1 REVERT JUMPDEST DUP2 DUP6 ADD SWAP2 POP DUP6 PUSH1 0x1F DUP4 ADD SLT PUSH2 0x722 JUMPI PUSH0 DUP1 REVERT JUMPDEST DUP2 CALLDATALOAD DUP2 DUP2 GT ISZERO PUSH2 0x734 JUMPI PUSH2 0x734 PUSH2 0x6B8 JUMP JUMPDEST PUSH1 0x40 MLOAD PUSH1 0x1F DUP3 ADD PUSH1 0x1F NOT SWAP1 DUP2 AND PUSH1 0x3F ADD AND DUP2 ADD SWAP1 DUP4 DUP3 GT DUP2 DUP4 LT OR ISZERO PUSH2 0x75C JUMPI PUSH2 0x75C PUSH2 0x6B8 JUMP JUMPDEST DUP2 PUSH1 0x40 MSTORE DUP3 DUP2 MSTORE DUP9 PUSH1 0x20 DUP5 DUP8 ADD ADD GT ISZERO PUSH2 0x774 JUMPI PUSH0 DUP1 REVERT JUMPDEST DUP3 PUSH1 0x20 DUP7 ADD PUSH1 0x20 DUP4 ADD CALLDATACOPY PUSH0 PUSH1 0x20 DUP5 DUP4 ADD ADD MSTORE DUP1 SWAP6 POP POP POP POP POP POP SWAP3 POP SWAP3 SWAP1 POP JUMP JUMPDEST PUSH1 0x1 DUP2 DUP2 SHR SWAP1 DUP3 AND DUP1 PUSH2 0x7A9 JUMPI PUSH1 0x7F DUP3 AND SWAP2 POP JUMPDEST PUSH1 0x20 DUP3 LT DUP2 SUB PUSH2 0x7C7 JUMPI PUSH4 0x4E487B71 PUSH1 0xE0 SHL PUSH0 MSTORE PUSH1 0x22 PUSH1 0x4 MSTORE PUSH1 0x24 PUSH0 REVERT JUMPDEST POP SWAP2 SWAP1 POP JUMP JUMPDEST PUSH0 PUSH1 0x1 DUP3 ADD PUSH2 0x7EA JUMPI PUSH4 0x4E487B71 PUSH1 0xE0 SHL PUSH0 MSTORE PUSH1 0x11 PUSH1 0x4 MSTORE PUSH1 0x24 PUSH0 REVERT JUMPDEST POP PUSH1 0x1 ADD SWAP1 JUMP JUMPDEST PUSH1 0x1F DUP3 GT ISZERO PUSH2 0x838 JUMPI DUP1 PUSH0 MSTORE PUSH1 0x20 PUSH0 KECCAK256 PUSH1 0x1F DUP5 ADD PUSH1 0x5 SHR DUP2 ADD PUSH1 0x20 DUP6 LT ISZERO PUSH2 0x816 JUMPI POP DUP1 JUMPDEST PUSH1 0x1F DUP5 ADD PUSH1 0x5 SHR DUP3 ADD SWAP2 POP JUMPDEST DUP2 DUP2 LT ISZERO PUSH2 0x835 JUMPI PUSH0 DUP2 SSTORE PUSH1 0x1 ADD PUSH2 0x822 JUMP JUMPDEST POP POP JUMPDEST POP POP POP JUMP JUMPDEST DUP2 MLOAD PUSH8 0xFFFFFFFFFFFFFFFF DUP2 GT ISZERO PUSH2 0x857 JUMPI PUSH2 0x857 PUSH2 0x6B8 JUMP JUMPDEST PUSH2 0x86B DUP2 PUSH2 0x865 DUP5 SLOAD PUSH2 0x795 JUMP JUMPDEST DUP5 PUSH2 0x7F1 JUMP JUMPDEST PUSH1 0x20 DUP1 PUSH1 0x1F DUP4 GT PUSH1 0x1 DUP2 EQ PUSH2 0x89E JUMPI PUSH0 DUP5 ISZERO PUSH2 0x887 JUMPI POP DUP6 DUP4 ADD MLOAD JUMPDEST PUSH0 NOT PUSH1 0x3 DUP7 SWAP1 SHL SHR NOT AND PUSH1 0x1 DUP6 SWAP1 SHL OR DUP6 SSTORE PUSH2 0x8F5 JUMP JUMPDEST PUSH0 DUP6 DUP2 MSTORE PUSH1 0x20 DUP2 KECCAK256 PUSH1 0x1F NOT DUP7 AND SWAP2 JUMPDEST DUP3 DUP2 LT ISZERO PUSH2 0x8CC JUMPI DUP9 DUP7 ADD MLOAD DUP3 SSTORE SWAP5 DUP5 ADD SWAP5 PUSH1 0x1 SWAP1 SWAP2 ADD SWAP1 DUP5 ADD PUSH2 0x8AD JUMP JUMPDEST POP DUP6 DUP3 LT ISZERO PUSH2 0x8E9 JUMPI DUP8 DUP6 ADD MLOAD PUSH0 NOT PUSH1 0x3 DUP9 SWAP1 SHL PUSH1 0xF8 AND SHR NOT AND DUP2 SSTORE JUMPDEST POP POP PUSH1 0x1 DUP5 PUSH1 0x1 SHL ADD DUP6 SSTORE JUMPDEST POP POP POP POP POP POP JUMP INVALID LOG2 PUSH5 0x6970667358 0x22 SLT KECCAK256 NUMBER 0x2B CALLER SWAP7 0x2A GAS 0xD3 0xDD SWAP2 SWAP9 PUSH23 0xA2B82F9DD033E9BD0AD0622C647332DC7091CE5FC36473 PUSH16 0x6C634300081900330000000000000000 "
    },
    "gasEstimates": {
      "creation": {
        "codeDepositCost": "471000",
        "executionCost": "24737",
        "totalCost": "495737"
      },
      "external": {
        "confirmDelivery(uint256)": "infinite",
        "createTransaction(address,string)": "infinite",
        "emergencyWithdraw()": "infinite",
        "getBalance()": "172",
        "owner()": "2358",
        "transactionCount()": "2283",
        "transactions(uint256)": "infinite"
      }
    },
    "methodIdentifiers": {
      "confirmDelivery(uint256)": "fd84cb97",
      "createTransaction(address,string)": "eb2fadf0",
      "emergencyWithdraw()": "db2e21bc",
      "getBalance()": "12065fe0",
      "owner()": "8da5cb5b",
      "transactionCount()": "b77bf600",
      "transactions(uint256)": "9ace38c2"
    }
  },
  "storageLayout": {
    "storage": [
      {
        "astId": 3,
        "contract": "HarsaEscrow.sol:HarsaEscrow",
        "label": "owner",
        "offset": 0,
        "slot": "0",
        "type": "t_address"
      },
      {
        "astId": 25,
        "contract": "HarsaEscrow.sol:HarsaEscrow",
        "label": "transactions",
        "offset": 0,
        "slot": "1",
        "type": "t_mapping(t_uint256,t_struct(Transaction)20_storage)"
      },
      {
        "astId": 27,
        "contract": "HarsaEscrow.sol:HarsaEscrow",
        "label": "transactionCount",
        "offset": 0,
        "slot": "2",
        "type": "t_uint256"
      }
    ],
    "types": {
      "t_address": {
        "encoding": "inplace",
        "label": "address",
        "numberOfBytes": "20"
      },
      "t_enum(State)8": {
        "encoding": "inplace",
        "label": "enum HarsaEscrow.State",
        "numberOfBytes": "1"
      },
      "t_mapping(t_uint256,t_struct(Transaction)20_storage)": {
        "encoding": "mapping",
        "key": "t_uint256",
        "label": "mapping(uint256 => struct HarsaEscrow.Transaction)",
        "numberOfBytes": "32",
        "value": "t_struct(Transaction)20_storage"
      },
      "t_string_storage": {
        "encoding": "bytes",
        "label": "string",
        "numberOfBytes": "32"
      },
      "t_struct(Transaction)20_storage": {
        "encoding": "inplace",
        "label": "struct HarsaEscrow.Transaction",
        "members": [
          {
            "astId": 10,
            "contract": "HarsaEscrow.sol:HarsaEscrow",
            "label": "seller",
            "offset": 0,
            "slot": "0",
            "type": "t_address"
          },
          {
            "astId": 12,
            "contract": "HarsaEscrow.sol:HarsaEscrow",
            "label": "buyer",
            "offset": 0,
            "slot": "1",
            "type": "t_address"
          },
          {
            "astId": 14,
            "contract": "HarsaEscrow.sol:HarsaEscrow",
            "label": "amount",
            "offset": 0,
            "slot": "2",
            "type": "t_uint256"
          },
          {
            "astId": 17,
            "contract": "HarsaEscrow.sol:HarsaEscrow",
            "label": "status",
            "offset": 0,
            "slot": "3",
            "type": "t_enum(State)8"
          },
          {
            "astId": 19,
            "contract": "HarsaEscrow.sol:HarsaEscrow",
            "label": "productSku",
            "offset": 0,
            "slot": "4",
            "type": "t_string_storage"
          }
        ],
        "numberOfBytes": "160"
      },
      "t_uint256": {
        "encoding": "inplace",
        "label": "uint256",
        "numberOfBytes": "32"
      }
    }
  },
  "userdoc": {
    "kind": "user",
    "methods": {},
    "version": 1
  }
}